{
  "contractName": "Voting2",
  "abi": [
    {
      "inputs": [],
      "stateMutability": "nonpayable",
      "type": "constructor"
    },
    {
      "inputs": [
        {
          "internalType": "uint256",
          "name": "",
          "type": "uint256"
        }
      ],
      "name": "candidates",
      "outputs": [
        {
          "internalType": "string",
          "name": "name",
          "type": "string"
        },
        {
          "internalType": "string",
          "name": "password",
          "type": "string"
        },
        {
          "internalType": "string",
          "name": "aadhaar_no",
          "type": "string"
        },
        {
          "internalType": "string",
          "name": "email",
          "type": "string"
        },
        {
          "internalType": "string",
          "name": "location",
          "type": "string"
        },
        {
          "internalType": "uint256",
          "name": "voteCount",
          "type": "uint256"
        },
        {
          "internalType": "string",
          "name": "constituency",
          "type": "string"
        },
        {
          "internalType": "string",
          "name": "party",
          "type": "string"
        }
      ],
      "stateMutability": "view",
      "type": "function",
      "constant": true
    },
    {
      "inputs": [
        {
          "internalType": "string",
          "name": "",
          "type": "string"
        }
      ],
      "name": "hasVoted",
      "outputs": [
        {
          "internalType": "bool",
          "name": "",
          "type": "bool"
        }
      ],
      "stateMutability": "view",
      "type": "function",
      "constant": true
    },
    {
      "inputs": [
        {
          "internalType": "string",
          "name": "",
          "type": "string"
        }
      ],
      "name": "isCandidate",
      "outputs": [
        {
          "internalType": "bool",
          "name": "",
          "type": "bool"
        }
      ],
      "stateMutability": "view",
      "type": "function",
      "constant": true
    },
    {
      "inputs": [],
      "name": "owner",
      "outputs": [
        {
          "internalType": "address",
          "name": "",
          "type": "address"
        }
      ],
      "stateMutability": "view",
      "type": "function",
      "constant": true
    },
    {
      "inputs": [],
      "name": "votingEndingTime",
      "outputs": [
        {
          "internalType": "uint256",
          "name": "",
          "type": "uint256"
        }
      ],
      "stateMutability": "view",
      "type": "function",
      "constant": true
    },
    {
      "inputs": [],
      "name": "votingStartTime",
      "outputs": [
        {
          "internalType": "uint256",
          "name": "",
          "type": "uint256"
        }
      ],
      "stateMutability": "view",
      "type": "function",
      "constant": true
    },
    {
      "inputs": [
        {
          "internalType": "string",
          "name": "_aadhaar_no",
          "type": "string"
        },
        {
          "internalType": "string",
          "name": "_location",
          "type": "string"
        },
        {
          "internalType": "string",
          "name": "_party",
          "type": "string"
        }
      ],
      "name": "addCandidate",
      "outputs": [],
      "stateMutability": "nonpayable",
      "type": "function"
    },
    {
      "inputs": [
        {
          "internalType": "string",
          "name": "_a",
          "type": "string"
        }
      ],
      "name": "getIndex",
      "outputs": [
        {
          "internalType": "uint256",
          "name": "",
          "type": "uint256"
        }
      ],
      "stateMutability": "view",
      "type": "function",
      "constant": true
    },
    {
      "inputs": [
        {
          "internalType": "string",
          "name": "_aadhaar_no",
          "type": "string"
        },
        {
          "internalType": "string",
          "name": "_location",
          "type": "string"
        },
        {
          "internalType": "string",
          "name": "_party",
          "type": "string"
        }
      ],
      "name": "editCandidate",
      "outputs": [],
      "stateMutability": "nonpayable",
      "type": "function"
    },
    {
      "inputs": [
        {
          "internalType": "string",
          "name": "_aadhaar_no",
          "type": "string"
        }
      ],
      "name": "deleteCandidate",
      "outputs": [],
      "stateMutability": "nonpayable",
      "type": "function"
    },
    {
      "inputs": [
        {
          "internalType": "string",
          "name": "_name",
          "type": "string"
        },
        {
          "internalType": "string",
          "name": "_password",
          "type": "string"
        },
        {
          "internalType": "string",
          "name": "_aadhaar_no",
          "type": "string"
        },
        {
          "internalType": "string",
          "name": "_email",
          "type": "string"
        },
        {
          "internalType": "string",
          "name": "_location",
          "type": "string"
        }
      ],
      "name": "addPerson",
      "outputs": [],
      "stateMutability": "nonpayable",
      "type": "function"
    },
    {
      "inputs": [
        {
          "internalType": "string",
          "name": "_name",
          "type": "string"
        },
        {
          "internalType": "string",
          "name": "_password",
          "type": "string"
        },
        {
          "internalType": "string",
          "name": "_aadhaar_no",
          "type": "string"
        },
        {
          "internalType": "string",
          "name": "_email",
          "type": "string"
        },
        {
          "internalType": "string",
          "name": "_location",
          "type": "string"
        }
      ],
      "name": "editPerson",
      "outputs": [],
      "stateMutability": "nonpayable",
      "type": "function"
    },
    {
      "inputs": [
        {
          "internalType": "string",
          "name": "_aadhaar_no",
          "type": "string"
        }
      ],
      "name": "deletePerson",
      "outputs": [],
      "stateMutability": "nonpayable",
      "type": "function"
    },
    {
      "inputs": [
        {
          "internalType": "string",
          "name": "_aadhaar_no",
          "type": "string"
        },
        {
          "internalType": "string",
          "name": "_password",
          "type": "string"
        }
      ],
      "name": "getPersonByAadhaar_noAndPassword",
      "outputs": [
        {
          "components": [
            {
              "internalType": "string",
              "name": "name",
              "type": "string"
            },
            {
              "internalType": "string",
              "name": "password",
              "type": "string"
            },
            {
              "internalType": "string",
              "name": "aadhaar_no",
              "type": "string"
            },
            {
              "internalType": "string",
              "name": "email",
              "type": "string"
            },
            {
              "internalType": "string",
              "name": "location",
              "type": "string"
            },
            {
              "internalType": "uint256",
              "name": "voteCount",
              "type": "uint256"
            },
            {
              "internalType": "string",
              "name": "constituency",
              "type": "string"
            },
            {
              "internalType": "string",
              "name": "party",
              "type": "string"
            }
          ],
          "internalType": "struct Voting2.Person",
          "name": "",
          "type": "tuple"
        }
      ],
      "stateMutability": "view",
      "type": "function",
      "constant": true
    },
    {
      "inputs": [
        {
          "internalType": "string",
          "name": "_aadhaar_no",
          "type": "string"
        },
        {
          "internalType": "uint256",
          "name": "index",
          "type": "uint256"
        }
      ],
      "name": "vote",
      "outputs": [],
      "stateMutability": "nonpayable",
      "type": "function"
    },
    {
      "inputs": [],
      "name": "checkOwner",
      "outputs": [
        {
          "internalType": "bool",
          "name": "",
          "type": "bool"
        }
      ],
      "stateMutability": "view",
      "type": "function",
      "constant": true
    },
    {
      "inputs": [
        {
          "internalType": "uint256",
          "name": "startTime",
          "type": "uint256"
        },
        {
          "internalType": "uint256",
          "name": "endTime",
          "type": "uint256"
        }
      ],
      "name": "setVotingTimes",
      "outputs": [],
      "stateMutability": "nonpayable",
      "type": "function"
    },
    {
      "inputs": [
        {
          "internalType": "string",
          "name": "_aadhaar_no",
          "type": "string"
        }
      ],
      "name": "getAllCandidates",
      "outputs": [
        {
          "components": [
            {
              "internalType": "string",
              "name": "name",
              "type": "string"
            },
            {
              "internalType": "string",
              "name": "password",
              "type": "string"
            },
            {
              "internalType": "string",
              "name": "aadhaar_no",
              "type": "string"
            },
            {
              "internalType": "string",
              "name": "email",
              "type": "string"
            },
            {
              "internalType": "string",
              "name": "location",
              "type": "string"
            },
            {
              "internalType": "uint256",
              "name": "voteCount",
              "type": "uint256"
            },
            {
              "internalType": "string",
              "name": "constituency",
              "type": "string"
            },
            {
              "internalType": "string",
              "name": "party",
              "type": "string"
            }
          ],
          "internalType": "struct Voting2.Person[]",
          "name": "",
          "type": "tuple[]"
        }
      ],
      "stateMutability": "view",
      "type": "function",
      "constant": true
    },
    {
      "inputs": [],
      "name": "getAllPersons",
      "outputs": [
        {
          "components": [
            {
              "internalType": "string",
              "name": "name",
              "type": "string"
            },
            {
              "internalType": "string",
              "name": "password",
              "type": "string"
            },
            {
              "internalType": "string",
              "name": "aadhaar_no",
              "type": "string"
            },
            {
              "internalType": "string",
              "name": "email",
              "type": "string"
            },
            {
              "internalType": "string",
              "name": "location",
              "type": "string"
            },
            {
              "internalType": "uint256",
              "name": "voteCount",
              "type": "uint256"
            },
            {
              "internalType": "string",
              "name": "constituency",
              "type": "string"
            },
            {
              "internalType": "string",
              "name": "party",
              "type": "string"
            }
          ],
          "internalType": "struct Voting2.Person[]",
          "name": "",
          "type": "tuple[]"
        }
      ],
      "stateMutability": "view",
      "type": "function",
      "constant": true
    },
    {
      "inputs": [
        {
          "internalType": "string",
          "name": "aadhaar_no",
          "type": "string"
        }
      ],
      "name": "getEmail",
      "outputs": [
        {
          "internalType": "string",
          "name": "",
          "type": "string"
        },
        {
          "internalType": "string",
          "name": "",
          "type": "string"
        }
      ],
      "stateMutability": "view",
      "type": "function",
      "constant": true
    }
  ],
  "bytecode": "0x60806040523480156200001157600080fd5b50336000806101000a81548173ffffffffffffffffffffffffffffffffffffffff021916908373ffffffffffffffffffffffffffffffffffffffff16021790555042600781905550610e104262000069919062001305565b6008819055506200018d6040518060400160405280600681526020017f52414d45534800000000000000000000000000000000000000000000000000008152506040518060400160405280600b81526020017f52616d65736840323030340000000000000000000000000000000000000000008152506040518060400160405280600c81526020017f31323334353637383930303000000000000000000000000000000000000000008152506040518060400160405280601281526020017f32323132303734406e65632e6564752e696e00000000000000000000000000008152506040518060400160405280600a81526020017f4b4f56494c50415454490000000000000000000000000000000000000000000081525062000b0f60201b60201c565b620002ab6040518060400160405280600481526020017f4a415941000000000000000000000000000000000000000000000000000000008152506040518060400160405280600981526020017f4a617961403230303400000000000000000000000000000000000000000000008152506040518060400160405280600c81526020017f39383736353433323130303000000000000000000000000000000000000000008152506040518060400160405280601281526020017f32323132303734406e65632e6564752e696e00000000000000000000000000008152506040518060400160405280600781526020017f4d4144555241490000000000000000000000000000000000000000000000000081525062000b0f60201b60201c565b620003c96040518060400160405280600581526020017f53454c56410000000000000000000000000000000000000000000000000000008152506040518060400160405280600a81526020017f53656c76614032303034000000000000000000000000000000000000000000008152506040518060400160405280600c81526020017f37383934353631323330303000000000000000000000000000000000000000008152506040518060400160405280601281526020017f32323132303734406e65632e6564752e696e00000000000000000000000000008152506040518060400160405280600a81526020017f4b4f56494c50415454490000000000000000000000000000000000000000000081525062000b0f60201b60201c565b620004e76040518060400160405280600581526020017f56494a41590000000000000000000000000000000000000000000000000000008152506040518060400160405280600a81526020017f56696a61794032303034000000000000000000000000000000000000000000008152506040518060400160405280600c81526020017f31313131313131313131313100000000000000000000000000000000000000008152506040518060400160405280601281526020017f32323132303734406e65632e6564752e696e00000000000000000000000000008152506040518060400160405280600781526020017f4348454e4e41490000000000000000000000000000000000000000000000000081525062000b0f60201b60201c565b620006056040518060400160405280600681526020017f5345454d414e00000000000000000000000000000000000000000000000000008152506040518060400160405280600b81526020017f5365656d616e40323030340000000000000000000000000000000000000000008152506040518060400160405280600c81526020017f32323232323232323232323200000000000000000000000000000000000000008152506040518060400160405280601281526020017f32323132303734406e65632e6564752e696e00000000000000000000000000008152506040518060400160405280600781526020017f4348454e4e41490000000000000000000000000000000000000000000000000081525062000b0f60201b60201c565b620007236040518060400160405280600581526020017f5661696b6f0000000000000000000000000000000000000000000000000000008152506040518060400160405280600a81526020017f5661696b6f4032303034000000000000000000000000000000000000000000008152506040518060400160405280600c81526020017f33333333333333333333333300000000000000000000000000000000000000008152506040518060400160405280601281526020017f32323132303734406e65632e6564752e696e00000000000000000000000000008152506040518060400160405280600781526020017f4348454e4e41490000000000000000000000000000000000000000000000000081525062000b0f60201b60201c565b620008416040518060400160405280600a81526020017f4468696e616b6172616e000000000000000000000000000000000000000000008152506040518060400160405280600f81526020017f4468696e616b6172616e403230303400000000000000000000000000000000008152506040518060400160405280600c81526020017f34343434343434343434343400000000000000000000000000000000000000008152506040518060400160405280601281526020017f32323132303734406e65632e6564752e696e00000000000000000000000000008152506040518060400160405280600781526020017f4348454e4e41490000000000000000000000000000000000000000000000000081525062000b0f60201b60201c565b620008f36040518060400160405280600c81526020017f31313131313131313131313100000000000000000000000000000000000000008152506040518060400160405280600781526020017f4348454e4e4149000000000000000000000000000000000000000000000000008152506040518060400160405280600381526020017f54564b000000000000000000000000000000000000000000000000000000000081525062000df460201b60201c565b620009a56040518060400160405280600c81526020017f32323232323232323232323200000000000000000000000000000000000000008152506040518060400160405280600781526020017f4348454e4e4149000000000000000000000000000000000000000000000000008152506040518060400160405280600381526020017f4e544b000000000000000000000000000000000000000000000000000000000081525062000df460201b60201c565b62000a576040518060400160405280600c81526020017f33333333333333333333333300000000000000000000000000000000000000008152506040518060400160405280600781526020017f4348454e4e4149000000000000000000000000000000000000000000000000008152506040518060400160405280600481526020017f4d444d4b0000000000000000000000000000000000000000000000000000000081525062000df460201b60201c565b62000b096040518060400160405280600c81526020017f34343434343434343434343400000000000000000000000000000000000000008152506040518060400160405280600a81526020017f4b4f56494c5041545449000000000000000000000000000000000000000000008152506040518060400160405280600481526020017f414d4d4b0000000000000000000000000000000000000000000000000000000081525062000df460201b60201c565b6200166f565b60008054906101000a900473ffffffffffffffffffffffffffffffffffffffff1673ffffffffffffffffffffffffffffffffffffffff163373ffffffffffffffffffffffffffffffffffffffff161462000ba0576040517f08c379a000000000000000000000000000000000000000000000000000000000815260040162000b9790620013c7565b60405180910390fd5b60075442108062000bb2575060085442115b62000bf4576040517f08c379a000000000000000000000000000000000000000000000000000000000815260040162000beb9062001439565b60405180910390fd5b600060058460405162000c089190620014de565b9081526020016040518091039020541462000c5a576040517f08c379a000000000000000000000000000000000000000000000000000000000815260040162000c519062001547565b60405180910390fd5b600160405180610100016040528087815260200186815260200185815260200184815260200183815260200160008152602001604051806020016040528060008152508152602001604051806020016040528060008152508152509080600181540180825580915050600190039060005260206000209060080201600090919091909150600082015181600001908051906020019062000cfc92919062001184565b50602082015181600101908051906020019062000d1b92919062001184565b50604082015181600201908051906020019062000d3a92919062001184565b50606082015181600301908051906020019062000d5992919062001184565b50608082015181600401908051906020019062000d7892919062001184565b5060a0820151816005015560c082015181600601908051906020019062000da192919062001184565b5060e082015181600701908051906020019062000dc092919062001184565b50505060018054905060058460405162000ddb9190620014de565b9081526020016040518091039020819055505050505050565b60008054906101000a900473ffffffffffffffffffffffffffffffffffffffff1673ffffffffffffffffffffffffffffffffffffffff163373ffffffffffffffffffffffffffffffffffffffff161462000e85576040517f08c379a000000000000000000000000000000000000000000000000000000000815260040162000e7c90620013c7565b60405180910390fd5b60075442108062000e97575060085442115b62000ed9576040517f08c379a000000000000000000000000000000000000000000000000000000000815260040162000ed09062001439565b60405180910390fd5b60048360405162000eeb9190620014de565b908152602001604051809103902060009054906101000a900460ff161562000f4a576040517f08c379a000000000000000000000000000000000000000000000000000000000815260040162000f4190620015b9565b60405180910390fd5b6000600160058560405162000f609190620014de565b90815260200160405180910390205462000f7b919062001305565b905060006001828154811062000f965762000f95620015db565b5b906000526020600020906008020190508381600601908051906020019062000fc092919062001184565b508281600701908051906020019062000fdb92919062001184565b5060008160050181905550600160048660405162000ffa9190620014de565b908152602001604051809103902060006101000a81548160ff02191690831515021790555060028190806001815401808255809150506001900390600052602060002090600802016000909190919091506000820181600001908054620010619062001639565b6200106e92919062001215565b506001820181600101908054620010859062001639565b6200109292919062001215565b506002820181600201908054620010a99062001639565b620010b692919062001215565b506003820181600301908054620010cd9062001639565b620010da92919062001215565b506004820181600401908054620010f19062001639565b620010fe92919062001215565b506005820154816005015560068201816006019080546200111f9062001639565b6200112c92919062001215565b506007820181600701908054620011439062001639565b6200115092919062001215565b5050506002805490506006866040516200116b9190620014de565b9081526020016040518091039020819055505050505050565b828054620011929062001639565b90600052602060002090601f016020900481019282620011b6576000855562001202565b82601f10620011d157805160ff191683800117855562001202565b8280016001018555821562001202579182015b8281111562001201578251825591602001919060010190620011e4565b5b509050620012119190620012ad565b5090565b828054620012239062001639565b90600052602060002090601f0160209004810192826200124757600085556200129a565b82601f106200125a57805485556200129a565b828001600101855582156200129a57600052602060002091601f016020900482015b82811115620012995782548255916001019190600101906200127c565b5b509050620012a99190620012ad565b5090565b5b80821115620012c8576000816000905550600101620012ae565b5090565b6000819050919050565b7f4e487b7100000000000000000000000000000000000000000000000000000000600052601160045260246000fd5b60006200131282620012cc565b91506200131f83620012cc565b925082821015620013355762001334620012d6565b5b828203905092915050565b600082825260208201905092915050565b7f4f6e6c7920746865206f776e65722063616e20706572666f726d20746869732060008201527f616374696f6e0000000000000000000000000000000000000000000000000000602082015250565b6000620013af60268362001340565b9150620013bc8262001351565b604082019050919050565b60006020820190508181036000830152620013e281620013a0565b9050919050565b7f456c656374696f6e20616c726561647920737461727465640000000000000000600082015250565b60006200142160188362001340565b91506200142e82620013e9565b602082019050919050565b60006020820190508181036000830152620014548162001412565b9050919050565b600081519050919050565b600081905092915050565b60005b838110156200149157808201518184015260208101905062001474565b83811115620014a1576000848401525b50505050565b6000620014b4826200145b565b620014c0818562001466565b9350620014d281856020860162001471565b80840191505092915050565b6000620014ec8284620014a7565b915081905092915050565b7f506572736f6e20616c7265616479206578697374730000000000000000000000600082015250565b60006200152f60158362001340565b91506200153c82620014f7565b602082019050919050565b60006020820190508181036000830152620015628162001520565b9050919050565b7f43616e64696461746520616c7265616479206578697374730000000000000000600082015250565b6000620015a160188362001340565b9150620015ae8262001569565b602082019050919050565b60006020820190508181036000830152620015d48162001592565b9050919050565b7f4e487b7100000000000000000000000000000000000000000000000000000000600052603260045260246000fd5b7f4e487b7100000000000000000000000000000000000000000000000000000000600052602260045260246000fd5b600060028204905060018216806200165257607f821691505b602082108114156200166957620016686200160a565b5b50919050565b61568e806200167f6000396000f3fe608060405234801561001057600080fd5b506004361061012c5760003560e01c806388feb516116100ad578063cdbce03d11610071578063cdbce03d14610348578063da21e22914610366578063ea1bbe3514610382578063f77e8bd7146103b2578063f9a5b2cb146103e35761012c565b806388feb516146102ba5780638da5cb5b146102d6578063a6385803146102f4578063acd2c2d614610310578063ad71f8dc1461032c5761012c565b806351599b15116100f457806351599b15146101f05780637149d8ba146102205780637d2e629e146102505780637fa4ba871461026c5780638843a0571461028a5761012c565b8063082ce279146101315780632019a6081461014d5780633477ee2e1461016b57806339bfeae3146101a25780634d0b1be7146101d2575b600080fd5b61014b600480360381019061014691906143de565b6103ff565b005b6101556106b8565b604051610162919061449e565b60405180910390f35b610185600480360381019061018091906144e5565b6106be565b60405161019998979695949392919061459a565b60405180910390f35b6101bc60048036038101906101b79190614649565b610ace565b6040516101c991906146ad565b60405180910390f35b6101da610b04565b6040516101e7919061449e565b60405180910390f35b61020a60048036038101906102059190614649565b610b0a565b60405161021791906146ad565b60405180910390f35b61023a60048036038101906102359190614649565b610b40565b60405161024791906148bd565b60405180910390f35b61026a600480360381019061026591906148df565b611a18565b005b610274611ab8565b60405161028191906148bd565b60405180910390f35b6102a4600480360381019061029f919061491f565b611f20565b6040516102b19190614a71565b60405180910390f35b6102d460048036038101906102cf9190614649565b612452565b005b6102de6128b6565b6040516102eb9190614ad4565b60405180910390f35b61030e60048036038101906103099190614aef565b6128da565b005b61032a60048036038101906103259190614b4b565b612b01565b005b610346600480360381019061034191906143de565b612dca565b005b610350613123565b60405161035d91906146ad565b60405180910390f35b610380600480360381019061037b9190614649565b61317a565b005b61039c60048036038101906103979190614649565b6138a3565b6040516103a9919061449e565b60405180910390f35b6103cc60048036038101906103c79190614649565b6138cb565b6040516103da929190614c52565b60405180910390f35b6103fd60048036038101906103f89190614b4b565b613dad565b005b60008054906101000a900473ffffffffffffffffffffffffffffffffffffffff1673ffffffffffffffffffffffffffffffffffffffff163373ffffffffffffffffffffffffffffffffffffffff161461048d576040517f08c379a000000000000000000000000000000000000000000000000000000000815260040161048490614cfb565b60405180910390fd5b60075442108061049e575060085442115b6104dd576040517f08c379a00000000000000000000000000000000000000000000000000000000081526004016104d490614d67565b60405180910390fd5b60006005846040516104ef9190614dc3565b908152602001604051809103902054141561053f576040517f08c379a000000000000000000000000000000000000000000000000000000000815260040161053690614e26565b60405180910390fd5b600060016005856040516105539190614dc3565b90815260200160405180910390205461056c9190614e75565b905060006001828154811061058457610583614ea9565b5b90600052602060002090600802019050838160060190805190602001906105ac9291906140cf565b50828160070190805190602001906105c59291906140cf565b5060006006866040516105d89190614dc3565b9081526020016040518091039020541415610628576040517f08c379a000000000000000000000000000000000000000000000000000000000815260040161061f90614e26565b60405180910390fd5b6000600160068760405161063c9190614dc3565b9081526020016040518091039020546106559190614e75565b905060006002828154811061066d5761066c614ea9565b5b90600052602060002090600802019050858160060190805190602001906106959291906140cf565b50848160070190805190602001906106ae9291906140cf565b5050505050505050565b60075481565b600281815481106106ce57600080fd5b90600052602060002090600802016000915090508060000180546106f190614f07565b80601f016020809104026020016040519081016040528092919081815260200182805461071d90614f07565b801561076a5780601f1061073f5761010080835404028352916020019161076a565b820191906000526020600020905b81548152906001019060200180831161074d57829003601f168201915b50505050509080600101805461077f90614f07565b80601f01602080910402602001604051908101604052809291908181526020018280546107ab90614f07565b80156107f85780601f106107cd576101008083540402835291602001916107f8565b820191906000526020600020905b8154815290600101906020018083116107db57829003601f168201915b50505050509080600201805461080d90614f07565b80601f016020809104026020016040519081016040528092919081815260200182805461083990614f07565b80156108865780601f1061085b57610100808354040283529160200191610886565b820191906000526020600020905b81548152906001019060200180831161086957829003601f168201915b50505050509080600301805461089b90614f07565b80601f01602080910402602001604051908101604052809291908181526020018280546108c790614f07565b80156109145780601f106108e957610100808354040283529160200191610914565b820191906000526020600020905b8154815290600101906020018083116108f757829003601f168201915b50505050509080600401805461092990614f07565b80601f016020809104026020016040519081016040528092919081815260200182805461095590614f07565b80156109a25780601f10610977576101008083540402835291602001916109a2565b820191906000526020600020905b81548152906001019060200180831161098557829003601f168201915b5050505050908060050154908060060180546109bd90614f07565b80601f01602080910402602001604051908101604052809291908181526020018280546109e990614f07565b8015610a365780601f10610a0b57610100808354040283529160200191610a36565b820191906000526020600020905b815481529060010190602001808311610a1957829003601f168201915b505050505090806007018054610a4b90614f07565b80601f0160208091040260200160405190810160405280929190818152602001828054610a7790614f07565b8015610ac45780601f10610a9957610100808354040283529160200191610ac4565b820191906000526020600020905b815481529060010190602001808311610aa757829003601f168201915b5050505050905088565b6003818051602081018201805184825260208301602085012081835280955050505050506000915054906101000a900460ff1681565b60085481565b6004818051602081018201805184825260208301602085012081835280955050505050506000915054906101000a900460ff1681565b60606040518060400160405280600381526020017f616c6c00000000000000000000000000000000000000000000000000000000008152508051906020012082805190602001201415610ff5576002805480602002602001604051908101604052809291908181526020016000905b82821015610fea578382906000526020600020906008020160405180610100016040529081600082018054610be390614f07565b80601f0160208091040260200160405190810160405280929190818152602001828054610c0f90614f07565b8015610c5c5780601f10610c3157610100808354040283529160200191610c5c565b820191906000526020600020905b815481529060010190602001808311610c3f57829003601f168201915b50505050508152602001600182018054610c7590614f07565b80601f0160208091040260200160405190810160405280929190818152602001828054610ca190614f07565b8015610cee5780601f10610cc357610100808354040283529160200191610cee565b820191906000526020600020905b815481529060010190602001808311610cd157829003601f168201915b50505050508152602001600282018054610d0790614f07565b80601f0160208091040260200160405190810160405280929190818152602001828054610d3390614f07565b8015610d805780601f10610d5557610100808354040283529160200191610d80565b820191906000526020600020905b815481529060010190602001808311610d6357829003601f168201915b50505050508152602001600382018054610d9990614f07565b80601f0160208091040260200160405190810160405280929190818152602001828054610dc590614f07565b8015610e125780601f10610de757610100808354040283529160200191610e12565b820191906000526020600020905b815481529060010190602001808311610df557829003601f168201915b50505050508152602001600482018054610e2b90614f07565b80601f0160208091040260200160405190810160405280929190818152602001828054610e5790614f07565b8015610ea45780601f10610e7957610100808354040283529160200191610ea4565b820191906000526020600020905b815481529060010190602001808311610e8757829003601f168201915b5050505050815260200160058201548152602001600682018054610ec790614f07565b80601f0160208091040260200160405190810160405280929190818152602001828054610ef390614f07565b8015610f405780601f10610f1557610100808354040283529160200191610f40565b820191906000526020600020905b815481529060010190602001808311610f2357829003601f168201915b50505050508152602001600782018054610f5990614f07565b80601f0160208091040260200160405190810160405280929190818152602001828054610f8590614f07565b8015610fd25780601f10610fa757610100808354040283529160200191610fd2565b820191906000526020600020905b815481529060010190602001808311610fb557829003601f168201915b50505050508152505081526020019060010190610baf565b505050509050611a13565b600060016005846040516110099190614dc3565b9081526020016040518091039020546110229190614e75565b905060006001828154811061103a57611039614ea9565b5b90600052602060002090600802016040518061010001604052908160008201805461106490614f07565b80601f016020809104026020016040519081016040528092919081815260200182805461109090614f07565b80156110dd5780601f106110b2576101008083540402835291602001916110dd565b820191906000526020600020905b8154815290600101906020018083116110c057829003601f168201915b505050505081526020016001820180546110f690614f07565b80601f016020809104026020016040519081016040528092919081815260200182805461112290614f07565b801561116f5780601f106111445761010080835404028352916020019161116f565b820191906000526020600020905b81548152906001019060200180831161115257829003601f168201915b5050505050815260200160028201805461118890614f07565b80601f01602080910402602001604051908101604052809291908181526020018280546111b490614f07565b80156112015780601f106111d657610100808354040283529160200191611201565b820191906000526020600020905b8154815290600101906020018083116111e457829003601f168201915b5050505050815260200160038201805461121a90614f07565b80601f016020809104026020016040519081016040528092919081815260200182805461124690614f07565b80156112935780601f1061126857610100808354040283529160200191611293565b820191906000526020600020905b81548152906001019060200180831161127657829003601f168201915b505050505081526020016004820180546112ac90614f07565b80601f01602080910402602001604051908101604052809291908181526020018280546112d890614f07565b80156113255780601f106112fa57610100808354040283529160200191611325565b820191906000526020600020905b81548152906001019060200180831161130857829003601f168201915b505050505081526020016005820154815260200160068201805461134890614f07565b80601f016020809104026020016040519081016040528092919081815260200182805461137490614f07565b80156113c15780601f10611396576101008083540402835291602001916113c1565b820191906000526020600020905b8154815290600101906020018083116113a457829003601f168201915b505050505081526020016007820180546113da90614f07565b80601f016020809104026020016040519081016040528092919081815260200182805461140690614f07565b80156114535780601f1061142857610100808354040283529160200191611453565b820191906000526020600020905b81548152906001019060200180831161143657829003601f168201915b50505050508152505090506000805b6002805490508110156114dd578260800151805190602001206002828154811061148f5761148e614ea9565b5b90600052602060002090600802016006016040516114ad9190614fd8565b604051809103902014156114ca5781806114c690614fef565b9250505b80806114d590614fef565b915050611462565b5060008167ffffffffffffffff8111156114fa576114f96142b3565b5b60405190808252806020026020018201604052801561153357816020015b611520614155565b8152602001906001900390816115185790505b5090506000805b600280549050811015611a09578460800151805190602001206002828154811061156757611566614ea9565b5b90600052602060002090600802016006016040516115859190614fd8565b604051809103902014156119f657600281815481106115a7576115a6614ea9565b5b9060005260206000209060080201604051806101000160405290816000820180546115d190614f07565b80601f01602080910402602001604051908101604052809291908181526020018280546115fd90614f07565b801561164a5780601f1061161f5761010080835404028352916020019161164a565b820191906000526020600020905b81548152906001019060200180831161162d57829003601f168201915b5050505050815260200160018201805461166390614f07565b80601f016020809104026020016040519081016040528092919081815260200182805461168f90614f07565b80156116dc5780601f106116b1576101008083540402835291602001916116dc565b820191906000526020600020905b8154815290600101906020018083116116bf57829003601f168201915b505050505081526020016002820180546116f590614f07565b80601f016020809104026020016040519081016040528092919081815260200182805461172190614f07565b801561176e5780601f106117435761010080835404028352916020019161176e565b820191906000526020600020905b81548152906001019060200180831161175157829003601f168201915b5050505050815260200160038201805461178790614f07565b80601f01602080910402602001604051908101604052809291908181526020018280546117b390614f07565b80156118005780601f106117d557610100808354040283529160200191611800565b820191906000526020600020905b8154815290600101906020018083116117e357829003601f168201915b5050505050815260200160048201805461181990614f07565b80601f016020809104026020016040519081016040528092919081815260200182805461184590614f07565b80156118925780601f1061186757610100808354040283529160200191611892565b820191906000526020600020905b81548152906001019060200180831161187557829003601f168201915b50505050508152602001600582015481526020016006820180546118b590614f07565b80601f01602080910402602001604051908101604052809291908181526020018280546118e190614f07565b801561192e5780601f106119035761010080835404028352916020019161192e565b820191906000526020600020905b81548152906001019060200180831161191157829003601f168201915b5050505050815260200160078201805461194790614f07565b80601f016020809104026020016040519081016040528092919081815260200182805461197390614f07565b80156119c05780601f10611995576101008083540402835291602001916119c0565b820191906000526020600020905b8154815290600101906020018083116119a357829003601f168201915b5050505050815250508383815181106119dc576119db614ea9565b5b602002602001018190525081806119f290614fef565b9250505b8080611a0190614fef565b91505061153a565b5081955050505050505b919050565b60008054906101000a900473ffffffffffffffffffffffffffffffffffffffff1673ffffffffffffffffffffffffffffffffffffffff163373ffffffffffffffffffffffffffffffffffffffff1614611aa6576040517f08c379a0000000000000000000000000000000000000000000000000000000008152600401611a9d90614cfb565b60405180910390fd5b81600781905550806008819055505050565b60606001805480602002602001604051908101604052809291908181526020016000905b82821015611f17578382906000526020600020906008020160405180610100016040529081600082018054611b1090614f07565b80601f0160208091040260200160405190810160405280929190818152602001828054611b3c90614f07565b8015611b895780601f10611b5e57610100808354040283529160200191611b89565b820191906000526020600020905b815481529060010190602001808311611b6c57829003601f168201915b50505050508152602001600182018054611ba290614f07565b80601f0160208091040260200160405190810160405280929190818152602001828054611bce90614f07565b8015611c1b5780601f10611bf057610100808354040283529160200191611c1b565b820191906000526020600020905b815481529060010190602001808311611bfe57829003601f168201915b50505050508152602001600282018054611c3490614f07565b80601f0160208091040260200160405190810160405280929190818152602001828054611c6090614f07565b8015611cad5780601f10611c8257610100808354040283529160200191611cad565b820191906000526020600020905b815481529060010190602001808311611c9057829003601f168201915b50505050508152602001600382018054611cc690614f07565b80601f0160208091040260200160405190810160405280929190818152602001828054611cf290614f07565b8015611d3f5780601f10611d1457610100808354040283529160200191611d3f565b820191906000526020600020905b815481529060010190602001808311611d2257829003601f168201915b50505050508152602001600482018054611d5890614f07565b80601f0160208091040260200160405190810160405280929190818152602001828054611d8490614f07565b8015611dd15780601f10611da657610100808354040283529160200191611dd1565b820191906000526020600020905b815481529060010190602001808311611db457829003601f168201915b5050505050815260200160058201548152602001600682018054611df490614f07565b80601f0160208091040260200160405190810160405280929190818152602001828054611e2090614f07565b8015611e6d5780601f10611e4257610100808354040283529160200191611e6d565b820191906000526020600020905b815481529060010190602001808311611e5057829003601f168201915b50505050508152602001600782018054611e8690614f07565b80601f0160208091040260200160405190810160405280929190818152602001828054611eb290614f07565b8015611eff5780601f10611ed457610100808354040283529160200191611eff565b820191906000526020600020905b815481529060010190602001808311611ee257829003601f168201915b50505050508152505081526020019060010190611adc565b50505050905090565b611f28614155565b6000600584604051611f3a9190614dc3565b9081526020016040518091039020541415611f8a576040517f08c379a0000000000000000000000000000000000000000000000000000000008152600401611f8190615084565b60405180910390fd5b60006001600585604051611f9e9190614dc3565b908152602001604051809103902054611fb79190614e75565b9050600060018281548110611fcf57611fce614ea9565b5b906000526020600020906008020160405180610100016040529081600082018054611ff990614f07565b80601f016020809104026020016040519081016040528092919081815260200182805461202590614f07565b80156120725780601f1061204757610100808354040283529160200191612072565b820191906000526020600020905b81548152906001019060200180831161205557829003601f168201915b5050505050815260200160018201805461208b90614f07565b80601f01602080910402602001604051908101604052809291908181526020018280546120b790614f07565b80156121045780601f106120d957610100808354040283529160200191612104565b820191906000526020600020905b8154815290600101906020018083116120e757829003601f168201915b5050505050815260200160028201805461211d90614f07565b80601f016020809104026020016040519081016040528092919081815260200182805461214990614f07565b80156121965780601f1061216b57610100808354040283529160200191612196565b820191906000526020600020905b81548152906001019060200180831161217957829003601f168201915b505050505081526020016003820180546121af90614f07565b80601f01602080910402602001604051908101604052809291908181526020018280546121db90614f07565b80156122285780601f106121fd57610100808354040283529160200191612228565b820191906000526020600020905b81548152906001019060200180831161220b57829003601f168201915b5050505050815260200160048201805461224190614f07565b80601f016020809104026020016040519081016040528092919081815260200182805461226d90614f07565b80156122ba5780601f1061228f576101008083540402835291602001916122ba565b820191906000526020600020905b81548152906001019060200180831161229d57829003601f168201915b50505050508152602001600582015481526020016006820180546122dd90614f07565b80601f016020809104026020016040519081016040528092919081815260200182805461230990614f07565b80156123565780601f1061232b57610100808354040283529160200191612356565b820191906000526020600020905b81548152906001019060200180831161233957829003601f168201915b5050505050815260200160078201805461236f90614f07565b80601f016020809104026020016040519081016040528092919081815260200182805461239b90614f07565b80156123e85780601f106123bd576101008083540402835291602001916123e8565b820191906000526020600020905b8154815290600101906020018083116123cb57829003601f168201915b5050505050815250509050838051906020012081602001518051906020012014612447576040517f08c379a000000000000000000000000000000000000000000000000000000000815260040161243e90615116565b60405180910390fd5b809250505092915050565b60008054906101000a900473ffffffffffffffffffffffffffffffffffffffff1673ffffffffffffffffffffffffffffffffffffffff163373ffffffffffffffffffffffffffffffffffffffff16146124e0576040517f08c379a00000000000000000000000000000000000000000000000000000000081526004016124d790614cfb565b60405180910390fd5b6007544210806124f1575060085442115b612530576040517f08c379a000000000000000000000000000000000000000000000000000000000815260040161252790614d67565b60405180910390fd5b600060016005836040516125449190614dc3565b90815260200160405180910390205461255d9190614e75565b905060006001828154811061257557612574614ea9565b5b90600052602060002090600802019050600060016006856040516125999190614dc3565b9081526020016040518091039020546125b29190614e75565b9050600260016002805490506125c89190614e75565b815481106125d9576125d8614ea9565b5b9060005260206000209060080201600282815481106125fb576125fa614ea9565b5b9060005260206000209060080201600082018160000190805461261d90614f07565b61262892919061419a565b50600182018160010190805461263d90614f07565b61264892919061419a565b50600282018160020190805461265d90614f07565b61266892919061419a565b50600382018160030190805461267d90614f07565b61268892919061419a565b50600482018160040190805461269d90614f07565b6126a892919061419a565b506005820154816005015560068201816006019080546126c790614f07565b6126d292919061419a565b5060078201816007019080546126e790614f07565b6126f292919061419a565b509050506001816127039190615136565b6006600260016002805490506127199190614e75565b8154811061272a57612729614ea9565b5b90600052602060002090600802016002016040516127489190615220565b908152602001604051809103902081905550600280548061276c5761276b615237565b5b6001900381819060005260206000209060080201600080820160006127919190614227565b6001820160006127a19190614227565b6002820160006127b19190614227565b6003820160006127c19190614227565b6004820160006127d19190614227565b60058201600090556006820160006127e99190614227565b6007820160006127f99190614227565b50509055604051806020016040528060008152508260060190805190602001906128249291906140cf565b506040518060200160405280600081525082600701908051906020019061284c9291906140cf565b50600082600501819055506006846040516128679190614dc3565b908152602001604051809103902060009055600060048560405161288b9190614dc3565b908152602001604051809103902060006101000a81548160ff02191690831515021790555050505050565b60008054906101000a900473ffffffffffffffffffffffffffffffffffffffff1681565b60075442101561291f576040517f08c379a0000000000000000000000000000000000000000000000000000000008152600401612916906152b2565b60405180910390fd5b600854421115612964576040517f08c379a000000000000000000000000000000000000000000000000000000000815260040161295b9061531e565b60405180910390fd5b6003826040516129749190614dc3565b908152602001604051809103902060009054906101000a900460ff16156129d0576040517f08c379a00000000000000000000000000000000000000000000000000000000081526004016129c79061538a565b60405180910390fd5b6002805490508110612a17576040517f08c379a0000000000000000000000000000000000000000000000000000000008152600401612a0e906153f6565b60405180910390fd5b600060028281548110612a2d57612a2c614ea9565b5b90600052602060002090600802019050806005016000815480929190612a5290614fef565b919050555060006001600583600201604051612a6e9190615220565b908152602001604051809103902054612a879190614e75565b905060018181548110612a9d57612a9c614ea9565b5b90600052602060002090600802016005016000815480929190612abf90614fef565b91905055506001600385604051612ad69190614dc3565b908152602001604051809103902060006101000a81548160ff02191690831515021790555050505050565b60008054906101000a900473ffffffffffffffffffffffffffffffffffffffff1673ffffffffffffffffffffffffffffffffffffffff163373ffffffffffffffffffffffffffffffffffffffff1614612b8f576040517f08c379a0000000000000000000000000000000000000000000000000000000008152600401612b8690614cfb565b60405180910390fd5b600754421080612ba0575060085442115b612bdf576040517f08c379a0000000000000000000000000000000000000000000000000000000008152600401612bd690614d67565b60405180910390fd5b6000600584604051612bf19190614dc3565b90815260200160405180910390205414612c40576040517f08c379a0000000000000000000000000000000000000000000000000000000008152600401612c3790615462565b60405180910390fd5b6001604051806101000160405280878152602001868152602001858152602001848152602001838152602001600081526020016040518060200160405280600081525081526020016040518060200160405280600081525081525090806001815401808255809150506001900390600052602060002090600802016000909190919091506000820151816000019080519060200190612ce09291906140cf565b506020820151816001019080519060200190612cfd9291906140cf565b506040820151816002019080519060200190612d1a9291906140cf565b506060820151816003019080519060200190612d379291906140cf565b506080820151816004019080519060200190612d549291906140cf565b5060a0820151816005015560c0820151816006019080519060200190612d7b9291906140cf565b5060e0820151816007019080519060200190612d989291906140cf565b505050600180549050600584604051612db19190614dc3565b9081526020016040518091039020819055505050505050565b60008054906101000a900473ffffffffffffffffffffffffffffffffffffffff1673ffffffffffffffffffffffffffffffffffffffff163373ffffffffffffffffffffffffffffffffffffffff1614612e58576040517f08c379a0000000000000000000000000000000000000000000000000000000008152600401612e4f90614cfb565b60405180910390fd5b600754421080612e69575060085442115b612ea8576040517f08c379a0000000000000000000000000000000000000000000000000000000008152600401612e9f90614d67565b60405180910390fd5b600483604051612eb89190614dc3565b908152602001604051809103902060009054906101000a900460ff1615612f14576040517f08c379a0000000000000000000000000000000000000000000000000000000008152600401612f0b906154ce565b60405180910390fd5b60006001600585604051612f289190614dc3565b908152602001604051809103902054612f419190614e75565b9050600060018281548110612f5957612f58614ea9565b5b9060005260206000209060080201905083816006019080519060200190612f819291906140cf565b5082816007019080519060200190612f9a9291906140cf565b50600081600501819055506001600486604051612fb79190614dc3565b908152602001604051809103902060006101000a81548160ff0219169083151502179055506002819080600181540180825580915050600190039060005260206000209060080201600090919091909150600082018160000190805461301c90614f07565b61302792919061419a565b50600182018160010190805461303c90614f07565b61304792919061419a565b50600282018160020190805461305c90614f07565b61306792919061419a565b50600382018160030190805461307c90614f07565b61308792919061419a565b50600482018160040190805461309c90614f07565b6130a792919061419a565b506005820154816005015560068201816006019080546130c690614f07565b6130d192919061419a565b5060078201816007019080546130e690614f07565b6130f192919061419a565b50505060028054905060068660405161310a9190614dc3565b9081526020016040518091039020819055505050505050565b60008060009054906101000a900473ffffffffffffffffffffffffffffffffffffffff1673ffffffffffffffffffffffffffffffffffffffff163373ffffffffffffffffffffffffffffffffffffffff1614905090565b60008054906101000a900473ffffffffffffffffffffffffffffffffffffffff1673ffffffffffffffffffffffffffffffffffffffff163373ffffffffffffffffffffffffffffffffffffffff1614613208576040517f08c379a00000000000000000000000000000000000000000000000000000000081526004016131ff90614cfb565b60405180910390fd5b600754421080613219575060085442115b613258576040517f08c379a000000000000000000000000000000000000000000000000000000000815260040161324f90614d67565b60405180910390fd5b6000600160058360405161326c9190614dc3565b9081526020016040518091039020546132859190614e75565b905060008110156132cb576040517f08c379a00000000000000000000000000000000000000000000000000000000081526004016132c29061553a565b60405180910390fd5b60018080805490506132dd9190614e75565b815481106132ee576132ed614ea9565b5b9060005260206000209060080201600182815481106133105761330f614ea9565b5b9060005260206000209060080201600082018160000190805461333290614f07565b61333d92919061419a565b50600182018160010190805461335290614f07565b61335d92919061419a565b50600282018160020190805461337290614f07565b61337d92919061419a565b50600382018160030190805461339290614f07565b61339d92919061419a565b5060048201816004019080546133b290614f07565b6133bd92919061419a565b506005820154816005015560068201816006019080546133dc90614f07565b6133e792919061419a565b5060078201816007019080546133fc90614f07565b61340792919061419a565b509050506001816134189190615136565b6005600180808054905061342c9190614e75565b8154811061343d5761343c614ea9565b5b906000526020600020906008020160020160405161345b9190615220565b908152602001604051809103902081905550600180548061347f5761347e615237565b5b6001900381819060005260206000209060080201600080820160006134a49190614227565b6001820160006134b49190614227565b6002820160006134c49190614227565b6003820160006134d49190614227565b6004820160006134e49190614227565b60058201600090556006820160006134fc9190614227565b60078201600061350c9190614227565b505090556004826040516135209190614dc3565b908152602001604051809103902060009054906101000a900460ff161561382157600060016006846040516135559190614dc3565b90815260200160405180910390205461356e9190614e75565b905060008110156135b4576040517f08c379a00000000000000000000000000000000000000000000000000000000081526004016135ab906155a6565b60405180910390fd5b600260016002805490506135c89190614e75565b815481106135d9576135d8614ea9565b5b9060005260206000209060080201600282815481106135fb576135fa614ea9565b5b9060005260206000209060080201600082018160000190805461361d90614f07565b61362892919061419a565b50600182018160010190805461363d90614f07565b61364892919061419a565b50600282018160020190805461365d90614f07565b61366892919061419a565b50600382018160030190805461367d90614f07565b61368892919061419a565b50600482018160040190805461369d90614f07565b6136a892919061419a565b506005820154816005015560068201816006019080546136c790614f07565b6136d292919061419a565b5060078201816007019080546136e790614f07565b6136f292919061419a565b509050506001816137039190615136565b6006600260016002805490506137199190614e75565b8154811061372a57613729614ea9565b5b90600052602060002090600802016002016040516137489190615220565b908152602001604051809103902081905550600280548061376c5761376b615237565b5b6001900381819060005260206000209060080201600080820160006137919190614227565b6001820160006137a19190614227565b6002820160006137b19190614227565b6003820160006137c19190614227565b6004820160006137d19190614227565b60058201600090556006820160006137e99190614227565b6007820160006137f99190614227565b5050905560068360405161380d9190614dc3565b908152602001604051809103902060009055505b6005826040516138319190614dc3565b9081526020016040518091039020600090556004826040516138539190614dc3565b908152602001604051809103902060006101000a81549060ff02191690556003826040516138819190614dc3565b908152602001604051809103902060006101000a81549060ff02191690555050565b60006005826040516138b59190614dc3565b9081526020016040518091039020549050919050565b60608060006005846040516138e09190614dc3565b9081526020016040518091039020541415613930576040517f08c379a000000000000000000000000000000000000000000000000000000000815260040161392790615638565b60405180910390fd5b60006005846040516139429190614dc3565b90815260200160405180910390205490506000600180836139639190614e75565b8154811061397457613973614ea9565b5b90600052602060002090600802016040518061010001604052908160008201805461399e90614f07565b80601f01602080910402602001604051908101604052809291908181526020018280546139ca90614f07565b8015613a175780601f106139ec57610100808354040283529160200191613a17565b820191906000526020600020905b8154815290600101906020018083116139fa57829003601f168201915b50505050508152602001600182018054613a3090614f07565b80601f0160208091040260200160405190810160405280929190818152602001828054613a5c90614f07565b8015613aa95780601f10613a7e57610100808354040283529160200191613aa9565b820191906000526020600020905b815481529060010190602001808311613a8c57829003601f168201915b50505050508152602001600282018054613ac290614f07565b80601f0160208091040260200160405190810160405280929190818152602001828054613aee90614f07565b8015613b3b5780601f10613b1057610100808354040283529160200191613b3b565b820191906000526020600020905b815481529060010190602001808311613b1e57829003601f168201915b50505050508152602001600382018054613b5490614f07565b80601f0160208091040260200160405190810160405280929190818152602001828054613b8090614f07565b8015613bcd5780601f10613ba257610100808354040283529160200191613bcd565b820191906000526020600020905b815481529060010190602001808311613bb057829003601f168201915b50505050508152602001600482018054613be690614f07565b80601f0160208091040260200160405190810160405280929190818152602001828054613c1290614f07565b8015613c5f5780601f10613c3457610100808354040283529160200191613c5f565b820191906000526020600020905b815481529060010190602001808311613c4257829003601f168201915b5050505050815260200160058201548152602001600682018054613c8290614f07565b80601f0160208091040260200160405190810160405280929190818152602001828054613cae90614f07565b8015613cfb5780601f10613cd057610100808354040283529160200191613cfb565b820191906000526020600020905b815481529060010190602001808311613cde57829003601f168201915b50505050508152602001600782018054613d1490614f07565b80601f0160208091040260200160405190810160405280929190818152602001828054613d4090614f07565b8015613d8d5780601f10613d6257610100808354040283529160200191613d8d565b820191906000526020600020905b815481529060010190602001808311613d7057829003601f168201915b505050505081525050905080606001518160200151935093505050915091565b60008054906101000a900473ffffffffffffffffffffffffffffffffffffffff1673ffffffffffffffffffffffffffffffffffffffff163373ffffffffffffffffffffffffffffffffffffffff1614613e3b576040517f08c379a0000000000000000000000000000000000000000000000000000000008152600401613e3290614cfb565b60405180910390fd5b600754421080613e4c575060085442115b613e8b576040517f08c379a0000000000000000000000000000000000000000000000000000000008152600401613e8290614d67565b60405180910390fd5b60006001600585604051613e9f9190614dc3565b908152602001604051809103902054613eb89190614e75565b90506000811015613efe576040517f08c379a0000000000000000000000000000000000000000000000000000000008152600401613ef59061553a565b60405180910390fd5b8560018281548110613f1357613f12614ea9565b5b90600052602060002090600802016000019080519060200190613f379291906140cf565b508460018281548110613f4d57613f4c614ea9565b5b90600052602060002090600802016001019080519060200190613f719291906140cf565b508260018281548110613f8757613f86614ea9565b5b90600052602060002090600802016003019080519060200190613fab9291906140cf565b508160018281548110613fc157613fc0614ea9565b5b90600052602060002090600802016004019080519060200190613fe59291906140cf565b50600484604051613ff69190614dc3565b908152602001604051809103902060009054906101000a900460ff16156140c75760006006856040516140299190614dc3565b90815260200160405180910390205490506000600282815481106140505761404f614ea9565b5b90600052602060002090600802019050878160000190805190602001906140789291906140cf565b50868160010190805190602001906140919291906140cf565b50848160030190805190602001906140aa9291906140cf565b50838160040190805190602001906140c39291906140cf565b5050505b505050505050565b8280546140db90614f07565b90600052602060002090601f0160209004810192826140fd5760008555614144565b82601f1061411657805160ff1916838001178555614144565b82800160010185558215614144579182015b82811115614143578251825591602001919060010190614128565b5b5090506141519190614267565b5090565b60405180610100016040528060608152602001606081526020016060815260200160608152602001606081526020016000815260200160608152602001606081525090565b8280546141a690614f07565b90600052602060002090601f0160209004810192826141c85760008555614216565b82601f106141d95780548555614216565b8280016001018555821561421657600052602060002091601f016020900482015b828111156142155782548255916001019190600101906141fa565b5b5090506142239190614267565b5090565b50805461423390614f07565b6000825580601f106142455750614264565b601f0160209004906000526020600020908101906142639190614267565b5b50565b5b80821115614280576000816000905550600101614268565b5090565b6000604051905090565b600080fd5b600080fd5b600080fd5b600080fd5b6000601f19601f8301169050919050565b7f4e487b7100000000000000000000000000000000000000000000000000000000600052604160045260246000fd5b6142eb826142a2565b810181811067ffffffffffffffff8211171561430a576143096142b3565b5b80604052505050565b600061431d614284565b905061432982826142e2565b919050565b600067ffffffffffffffff821115614349576143486142b3565b5b614352826142a2565b9050602081019050919050565b82818337600083830152505050565b600061438161437c8461432e565b614313565b90508281526020810184848401111561439d5761439c61429d565b5b6143a884828561435f565b509392505050565b600082601f8301126143c5576143c4614298565b5b81356143d584826020860161436e565b91505092915050565b6000806000606084860312156143f7576143f661428e565b5b600084013567ffffffffffffffff81111561441557614414614293565b5b614421868287016143b0565b935050602084013567ffffffffffffffff81111561444257614441614293565b5b61444e868287016143b0565b925050604084013567ffffffffffffffff81111561446f5761446e614293565b5b61447b868287016143b0565b9150509250925092565b6000819050919050565b61449881614485565b82525050565b60006020820190506144b3600083018461448f565b92915050565b6144c281614485565b81146144cd57600080fd5b50565b6000813590506144df816144b9565b92915050565b6000602082840312156144fb576144fa61428e565b5b6000614509848285016144d0565b91505092915050565b600081519050919050565b600082825260208201905092915050565b60005b8381101561454c578082015181840152602081019050614531565b8381111561455b576000848401525b50505050565b600061456c82614512565b614576818561451d565b935061458681856020860161452e565b61458f816142a2565b840191505092915050565b60006101008201905081810360008301526145b5818b614561565b905081810360208301526145c9818a614561565b905081810360408301526145dd8189614561565b905081810360608301526145f18188614561565b905081810360808301526146058187614561565b905061461460a083018661448f565b81810360c08301526146268185614561565b905081810360e083015261463a8184614561565b90509998505050505050505050565b60006020828403121561465f5761465e61428e565b5b600082013567ffffffffffffffff81111561467d5761467c614293565b5b614689848285016143b0565b91505092915050565b60008115159050919050565b6146a781614692565b82525050565b60006020820190506146c2600083018461469e565b92915050565b600081519050919050565b600082825260208201905092915050565b6000819050602082019050919050565b600082825260208201905092915050565b600061471082614512565b61471a81856146f4565b935061472a81856020860161452e565b614733816142a2565b840191505092915050565b61474781614485565b82525050565b600061010083016000830151848203600086015261476b8282614705565b915050602083015184820360208601526147858282614705565b9150506040830151848203604086015261479f8282614705565b915050606083015184820360608601526147b98282614705565b915050608083015184820360808601526147d38282614705565b91505060a08301516147e860a086018261473e565b5060c083015184820360c08601526148008282614705565b91505060e083015184820360e086015261481a8282614705565b9150508091505092915050565b6000614833838361474d565b905092915050565b6000602082019050919050565b6000614853826146c8565b61485d81856146d3565b93508360208202850161486f856146e4565b8060005b858110156148ab578484038952815161488c8582614827565b94506148978361483b565b925060208a01995050600181019050614873565b50829750879550505050505092915050565b600060208201905081810360008301526148d78184614848565b905092915050565b600080604083850312156148f6576148f561428e565b5b6000614904858286016144d0565b9250506020614915858286016144d0565b9150509250929050565b600080604083850312156149365761493561428e565b5b600083013567ffffffffffffffff81111561495457614953614293565b5b614960858286016143b0565b925050602083013567ffffffffffffffff81111561498157614980614293565b5b61498d858286016143b0565b9150509250929050565b60006101008301600083015184820360008601526149b58282614705565b915050602083015184820360208601526149cf8282614705565b915050604083015184820360408601526149e98282614705565b91505060608301518482036060860152614a038282614705565b91505060808301518482036080860152614a1d8282614705565b91505060a0830151614a3260a086018261473e565b5060c083015184820360c0860152614a4a8282614705565b91505060e083015184820360e0860152614a648282614705565b9150508091505092915050565b60006020820190508181036000830152614a8b8184614997565b905092915050565b600073ffffffffffffffffffffffffffffffffffffffff82169050919050565b6000614abe82614a93565b9050919050565b614ace81614ab3565b82525050565b6000602082019050614ae96000830184614ac5565b92915050565b60008060408385031215614b0657614b0561428e565b5b600083013567ffffffffffffffff811115614b2457614b23614293565b5b614b30858286016143b0565b9250506020614b41858286016144d0565b9150509250929050565b600080600080600060a08688031215614b6757614b6661428e565b5b600086013567ffffffffffffffff811115614b8557614b84614293565b5b614b91888289016143b0565b955050602086013567ffffffffffffffff811115614bb257614bb1614293565b5b614bbe888289016143b0565b945050604086013567ffffffffffffffff811115614bdf57614bde614293565b5b614beb888289016143b0565b935050606086013567ffffffffffffffff811115614c0c57614c0b614293565b5b614c18888289016143b0565b925050608086013567ffffffffffffffff811115614c3957614c38614293565b5b614c45888289016143b0565b9150509295509295909350565b60006040820190508181036000830152614c6c8185614561565b90508181036020830152614c808184614561565b90509392505050565b7f4f6e6c7920746865206f776e65722063616e20706572666f726d20746869732060008201527f616374696f6e0000000000000000000000000000000000000000000000000000602082015250565b6000614ce560268361451d565b9150614cf082614c89565b604082019050919050565b60006020820190508181036000830152614d1481614cd8565b9050919050565b7f456c656374696f6e20616c726561647920737461727465640000000000000000600082015250565b6000614d5160188361451d565b9150614d5c82614d1b565b602082019050919050565b60006020820190508181036000830152614d8081614d44565b9050919050565b600081905092915050565b6000614d9d82614512565b614da78185614d87565b9350614db781856020860161452e565b80840191505092915050565b6000614dcf8284614d92565b915081905092915050565b7f7a65726f6f6f0000000000000000000000000000000000000000000000000000600082015250565b6000614e1060068361451d565b9150614e1b82614dda565b602082019050919050565b60006020820190508181036000830152614e3f81614e03565b9050919050565b7f4e487b7100000000000000000000000000000000000000000000000000000000600052601160045260246000fd5b6000614e8082614485565b9150614e8b83614485565b925082821015614e9e57614e9d614e46565b5b828203905092915050565b7f4e487b7100000000000000000000000000000000000000000000000000000000600052603260045260246000fd5b7f4e487b7100000000000000000000000000000000000000000000000000000000600052602260045260246000fd5b60006002820490506001821680614f1f57607f821691505b60208210811415614f3357614f32614ed8565b5b50919050565b600081905092915050565b60008190508160005260206000209050919050565b60008154614f6681614f07565b614f708186614f39565b94506001821660008114614f8b5760018114614f9c57614fcf565b60ff19831686528186019350614fcf565b614fa585614f44565b60005b83811015614fc757815481890152600182019150602081019050614fa8565b838801955050505b50505092915050565b6000614fe48284614f59565b915081905092915050565b6000614ffa82614485565b91507fffffffffffffffffffffffffffffffffffffffffffffffffffffffffffffffff82141561502d5761502c614e46565b5b600182019050919050565b7f41616468616172206e6f20646f6573206e6f7420657869737400000000000000600082015250565b600061506e60198361451d565b915061507982615038565b602082019050919050565b6000602082019050818103600083015261509d81615061565b9050919050565b7f4161646861617220616e642070617373776f72642063726564656e7469616c7360008201527f20617265206e6f74206d61746368656400000000000000000000000000000000602082015250565b600061510060308361451d565b915061510b826150a4565b604082019050919050565b6000602082019050818103600083015261512f816150f3565b9050919050565b600061514182614485565b915061514c83614485565b9250827fffffffffffffffffffffffffffffffffffffffffffffffffffffffffffffffff0382111561518157615180614e46565b5b828201905092915050565b60008190508160005260206000209050919050565b600081546151ae81614f07565b6151b88186614d87565b945060018216600081146151d357600181146151e457615217565b60ff19831686528186019350615217565b6151ed8561518c565b60005b8381101561520f578154818901526001820191506020810190506151f0565b838801955050505b50505092915050565b600061522c82846151a1565b915081905092915050565b7f4e487b7100000000000000000000000000000000000000000000000000000000600052603160045260246000fd5b7f456c656374696f6e206e6f742073746172746564000000000000000000000000600082015250565b600061529c60148361451d565b91506152a782615266565b602082019050919050565b600060208201905081810360008301526152cb8161528f565b9050919050565b7f456c656374696f6e20656e646564000000000000000000000000000000000000600082015250565b6000615308600e8361451d565b9150615313826152d2565b602082019050919050565b60006020820190508181036000830152615337816152fb565b9050919050565b7f416c726561647920766f74656400000000000000000000000000000000000000600082015250565b6000615374600d8361451d565b915061537f8261533e565b602082019050919050565b600060208201905081810360008301526153a381615367565b9050919050565b7f43616e646964617465206e6f7420666f756e6400000000000000000000000000600082015250565b60006153e060138361451d565b91506153eb826153aa565b602082019050919050565b6000602082019050818103600083015261540f816153d3565b9050919050565b7f506572736f6e20616c7265616479206578697374730000000000000000000000600082015250565b600061544c60158361451d565b915061545782615416565b602082019050919050565b6000602082019050818103600083015261547b8161543f565b9050919050565b7f43616e64696461746520616c7265616479206578697374730000000000000000600082015250565b60006154b860188361451d565b91506154c382615482565b602082019050919050565b600060208201905081810360008301526154e7816154ab565b9050919050565b7f506572736f6e206e6f7420666f756e642e000000000000000000000000000000600082015250565b600061552460118361451d565b915061552f826154ee565b602082019050919050565b6000602082019050818103600083015261555381615517565b9050919050565b7f43616e646964617465206e6f7420666f756e642e000000000000000000000000600082015250565b600061559060148361451d565b915061559b8261555a565b602082019050919050565b600060208201905081810360008301526155bf81615583565b9050919050565b7f5468697320416164686161722075736572206973206e6f74207265676973746560008201527f72656420666f7220766f74696e67000000000000000000000000000000000000602082015250565b6000615622602e8361451d565b915061562d826155c6565b604082019050919050565b6000602082019050818103600083015261565181615615565b905091905056fea2646970667358221220c4c05a20197d4f37baa90d4e8710ced5aaafd7f0e959b8c3b0ecd87f4d3897c264736f6c63430008090033",
  "immutableReferences": {},
  "source": "// SPDX-License-Identifier: MIT\r\npragma solidity ^0.8.0;\r\n\r\ncontract Voting2 {\r\n    struct Person {\r\n        string name;\r\n        string password;\r\n        string aadhaar_no;\r\n        string email;\r\n        string location;\r\n        uint256 voteCount;\r\n        string constituency;\r\n        string party; // Party affiliation of the candidate\r\n    }\r\n\r\n    address public owner;\r\n    Person[] private people;\r\n    Person[] public candidates;\r\n    mapping(string => bool) public hasVoted;\r\n    mapping(string => bool) public isCandidate;\r\n    mapping(string => uint256) private aadhaarToIndexPerson;\r\n    mapping(string => uint256) private aadhaarToIndexCandidate;\r\n\r\n    uint256 public votingStartTime;\r\n    uint256 public votingEndingTime;\r\n\r\n    constructor() {\r\n        owner = msg.sender;\r\n        votingStartTime = block.timestamp;\r\n        votingEndingTime = block.timestamp - (60 * 60);\r\n        addPerson(\r\n            \"RAMESH\",\r\n            \"Ramesh@2004\",\r\n            \"123456789000\",\r\n            \"2212074@nec.edu.in\",\r\n            \"KOVILPATTI\"\r\n        );\r\n        addPerson(\r\n            \"JAYA\",\r\n            \"Jaya@2004\",\r\n            \"987654321000\",\r\n            \"2212074@nec.edu.in\",\r\n            \"MADURAI\"\r\n        );\r\n        addPerson(\r\n            \"SELVA\",\r\n            \"Selva@2004\",\r\n            \"789456123000\",\r\n            \"2212074@nec.edu.in\",\r\n            \"KOVILPATTI\"\r\n        );\r\n        addPerson(\r\n            \"VIJAY\",\r\n            \"Vijay@2004\",\r\n            \"111111111111\",\r\n            \"2212074@nec.edu.in\",\r\n            \"CHENNAI\"\r\n        );\r\n        addPerson(\r\n            \"SEEMAN\",\r\n            \"Seeman@2004\",\r\n            \"222222222222\",\r\n            \"2212074@nec.edu.in\",\r\n            \"CHENNAI\"\r\n        );\r\n         addPerson(\r\n            \"Vaiko\",\r\n            \"Vaiko@2004\",\r\n            \"333333333333\",\r\n            \"2212074@nec.edu.in\",\r\n            \"CHENNAI\"\r\n        );\r\n        addPerson(\r\n            \"Dhinakaran\",\r\n            \"Dhinakaran@2004\",\r\n            \"444444444444\",\r\n            \"2212074@nec.edu.in\",\r\n            \"CHENNAI\"\r\n        );\r\n        addCandidate(\"111111111111\", \"CHENNAI\", \"TVK\");\r\n        addCandidate(\"222222222222\", \"CHENNAI\", \"NTK\");\r\n        addCandidate(\"333333333333\", \"CHENNAI\", \"MDMK\");\r\n        addCandidate(\"444444444444\", \"KOVILPATTI\", \"AMMK\");\r\n        \r\n    }\r\n\r\n    function addCandidate(\r\n        string memory _aadhaar_no,\r\n        string memory _location,\r\n        string memory _party\r\n    ) public onlyOwner {\r\n        require(\r\n            block.timestamp < votingStartTime ||\r\n                block.timestamp > votingEndingTime,\r\n            \"Election already started\"\r\n        );\r\n        require(!isCandidate[_aadhaar_no], \"Candidate already exists\");\r\n\r\n        // Access the person directly in the mapping and update candidate details\r\n        uint256 personIndex = aadhaarToIndexPerson[_aadhaar_no]-1;\r\n        Person storage p = people[personIndex];\r\n        p.constituency = _location;\r\n        p.party = _party;\r\n        p.voteCount = 0;\r\n        isCandidate[_aadhaar_no] = true;\r\n        candidates.push(p);\r\n        aadhaarToIndexCandidate[_aadhaar_no]=candidates.length;\r\n      \r\n    }\r\n\r\n     function getIndex(string memory _a) public view returns (uint256 ) {\r\n        \r\n       return aadhaarToIndexPerson[_a];        \r\n    }\r\n    function editCandidate(\r\n        string memory _aadhaar_no,\r\n        string memory _location,\r\n        string memory _party\r\n    ) public onlyOwner {\r\n        require(\r\n            block.timestamp < votingStartTime ||\r\n                block.timestamp > votingEndingTime,\r\n            \"Election already started\"\r\n        );\r\n        require(aadhaarToIndexPerson[_aadhaar_no]!=0,\"zerooo\");\r\n        uint256 personIndex = aadhaarToIndexPerson[_aadhaar_no]-1;\r\n        Person storage p = people[personIndex];\r\n        p.constituency = _location;\r\n        p.party = _party;\r\n        require(aadhaarToIndexCandidate[_aadhaar_no]!=0,\"zerooo\");\r\n         uint256 cIndex = aadhaarToIndexCandidate[_aadhaar_no]-1;\r\n        Person storage p2 = candidates[cIndex];\r\n        p2.constituency = _location;\r\n        p2.party = _party;\r\n\r\n    }\r\n\r\n    function deleteCandidate(string memory _aadhaar_no) public onlyOwner {\r\n        require(\r\n            block.timestamp < votingStartTime ||\r\n                block.timestamp > votingEndingTime,\r\n            \"Election already started\"\r\n        );\r\n        uint256 personIndex = aadhaarToIndexPerson[_aadhaar_no]-1;\r\n        Person storage p = people[personIndex];\r\n        uint256 index = aadhaarToIndexCandidate[_aadhaar_no]-1;\r\n        candidates[index] = candidates[candidates.length - 1];\r\n        aadhaarToIndexCandidate[candidates[candidates.length-1].aadhaar_no]=index+1;\r\n        candidates.pop();\r\n\r\n        p.constituency = \"\";\r\n        p.party = \"\";\r\n        p.voteCount = 0;\r\n        delete aadhaarToIndexCandidate[_aadhaar_no];\r\n        isCandidate[_aadhaar_no] = false;\r\n    }\r\n\r\n    function addPerson(\r\n        string memory _name,\r\n        string memory _password,\r\n        string memory _aadhaar_no,\r\n        string memory _email,\r\n        string memory _location\r\n    ) public onlyOwner {\r\n        require(\r\n            block.timestamp < votingStartTime ||\r\n                block.timestamp > votingEndingTime,\r\n            \"Election already started\"\r\n        );\r\n        require(\r\n            aadhaarToIndexPerson[_aadhaar_no] == 0,\r\n            \"Person already exists\"\r\n        );\r\n\r\n        people.push(\r\n            Person(_name, _password, _aadhaar_no, _email, _location, 0, \"\", \"\")\r\n        );\r\n        aadhaarToIndexPerson[_aadhaar_no] = people.length;\r\n    }\r\n\r\n    function editPerson(\r\n        string memory _name,\r\n        string memory _password,\r\n        string memory _aadhaar_no,\r\n        string memory _email,\r\n        string memory _location\r\n    ) public onlyOwner {\r\n        require(\r\n            block.timestamp < votingStartTime ||\r\n                block.timestamp > votingEndingTime,\r\n            \"Election already started\"\r\n        );\r\n        uint256 index = aadhaarToIndexPerson[_aadhaar_no]-1;\r\n        require(index >= 0, \"Person not found.\");\r\n        people[index].name = _name;\r\n        people[index].password = _password;\r\n        people[index].email = _email;\r\n        people[index].location = _location;\r\n        if(isCandidate[_aadhaar_no]){\r\n            uint256 index2=aadhaarToIndexCandidate[_aadhaar_no];\r\n            Person storage p2=candidates[index2];\r\n            p2.name = _name;\r\n            p2.password = _password;\r\n            p2.email = _email;\r\n            p2.location = _location;\r\n            \r\n        }\r\n    }\r\n\r\n    function deletePerson(string memory _aadhaar_no) public onlyOwner {\r\n        require(\r\n            block.timestamp < votingStartTime ||\r\n                block.timestamp > votingEndingTime,\r\n            \"Election already started\"\r\n        );\r\n        uint256 index = aadhaarToIndexPerson[_aadhaar_no]-1;\r\n        require(index >= 0, \"Person not found.\");\r\n\r\n        people[index] = people[people.length - 1];\r\n        aadhaarToIndexPerson[people[people.length - 1].aadhaar_no] = index+1;\r\n        people.pop();\r\n        if(isCandidate[_aadhaar_no]){\r\n            uint256 index2 = aadhaarToIndexCandidate[_aadhaar_no]-1;\r\n            require(index2 >= 0, \"Candidate not found.\");\r\n\r\n            candidates[index2] = candidates[candidates.length - 1];\r\n            aadhaarToIndexCandidate[candidates[candidates.length - 1].aadhaar_no] = index2+1;\r\n            candidates.pop();\r\n            delete aadhaarToIndexCandidate[_aadhaar_no];\r\n        }\r\n        delete aadhaarToIndexPerson[_aadhaar_no];\r\n        delete isCandidate[_aadhaar_no]; // Delete candidate status\r\n        delete hasVoted[_aadhaar_no]; // Delete vote status (if applicable)\r\n    }\r\n\r\n    function getPersonByAadhaar_noAndPassword(\r\n        string memory _aadhaar_no,\r\n        string memory _password\r\n    ) public view returns (Person memory) {\r\n        require(aadhaarToIndexPerson[_aadhaar_no] != 0, \"Aadhaar no does not exist\");\r\n        uint256 index = aadhaarToIndexPerson[_aadhaar_no]-1;\r\n        Person memory p = people[index];\r\n        require(\r\n            keccak256(bytes(p.password)) == keccak256(bytes(_password)),\r\n            \"Aadhaar and password credentials are not matched\"\r\n        );\r\n        return p;\r\n    }\r\n\r\n    function vote(string memory _aadhaar_no, uint256 index) public {\r\n        require(block.timestamp >= votingStartTime, \"Election not started\");\r\n        require(block.timestamp <= votingEndingTime, \"Election ended\");\r\n        require(!hasVoted[_aadhaar_no], \"Already voted\");\r\n\r\n        require(index < candidates.length, \"Candidate not found\");\r\n\r\n        Person storage p = candidates[index];\r\n        p.voteCount++;\r\n        uint256 ind=aadhaarToIndexPerson[p.aadhaar_no]-1;\r\n        people[ind].voteCount++;\r\n        hasVoted[_aadhaar_no] = true;\r\n    }\r\n\r\n    modifier onlyOwner() {\r\n        require(msg.sender == owner, \"Only the owner can perform this action\");\r\n        _;\r\n    }\r\n\r\n    function checkOwner() public view returns (bool) {\r\n        return msg.sender == owner;\r\n    }\r\n\r\n    function setVotingTimes(\r\n        uint256 startTime,\r\n        uint256 endTime\r\n    ) public onlyOwner {\r\n        votingStartTime = startTime;\r\n        votingEndingTime = endTime;\r\n    }\r\n\r\n    function getAllCandidates(\r\n        string memory _aadhaar_no\r\n    ) public view returns (Person[] memory) {\r\n        if (keccak256(bytes(_aadhaar_no)) == keccak256(bytes(\"all\"))) {\r\n            return candidates;\r\n        } else {\r\n            uint256 personIndex = aadhaarToIndexPerson[_aadhaar_no]-1;\r\n            Person memory person = people[personIndex];\r\n\r\n            uint256 count = 0;\r\n            for (uint256 i = 0; i < candidates.length; i++) {\r\n                if (\r\n                    keccak256(bytes(candidates[i].constituency)) ==\r\n                    keccak256(bytes(person.location))\r\n                ) {\r\n                    count++;\r\n                }\r\n            }\r\n\r\n            Person[] memory matchingCandidates = new Person[](count);\r\n            uint256 index = 0;\r\n            for (uint256 i = 0; i < candidates.length; i++) {\r\n                if (\r\n                    keccak256(bytes(candidates[i].constituency)) ==\r\n                    keccak256(bytes(person.location))\r\n                ) {\r\n                    matchingCandidates[index] = candidates[i];\r\n                    index++;\r\n                }\r\n            }\r\n\r\n            return matchingCandidates;\r\n        }\r\n    }\r\n\r\n    function getAllPersons() public view returns (Person[] memory) {\r\n        return people;\r\n    }\r\n    function getEmail(string memory aadhaar_no) public view returns (string memory,string memory) {\r\n        require(aadhaarToIndexPerson[aadhaar_no] != 0, \"This Aadhaar user is not registered for voting\");\r\n        uint256 index = aadhaarToIndexPerson[aadhaar_no];\r\n        Person memory p = people[index - 1]; \r\n        return (p.email,p.password);\r\n    }\r\n\r\n   \r\n}\r\n",
  "sourcePath": "C:\\Users\\rselv\\OneDrive\\\\Evoting-DApp\\contracts\\Voting2.sol",
  "compiler": {
    "name": "solc",
    "version": "0.8.9+commit.e5eed63a.Emscripten.clang"
  },
  "schemaVersion": "3.4.16",
  "updatedAt": "2024-12-10T00:45:38.977Z",
  "networkType": "ethereum",
  "devdoc": {
    "kind": "dev",
    "methods": {},
    "version": 1
  },
  "userdoc": {
    "kind": "user",
    "methods": {},
    "version": 1
  }
}