{
  "contractName": "Voting",
  "abi": [
    {
      "inputs": [
        {
          "internalType": "string[]",
          "name": "_candidateNames",
          "type": "string[]"
        },
        {
          "internalType": "string[]",
          "name": "_candidateLocation",
          "type": "string[]"
        },
        {
          "internalType": "string[]",
          "name": "_candidateParty",
          "type": "string[]"
        },
        {
          "internalType": "uint256",
          "name": "_durationInMinutes",
          "type": "uint256"
        }
      ],
      "stateMutability": "nonpayable",
      "type": "constructor"
    },
    {
      "inputs": [
        {
          "internalType": "uint256",
          "name": "",
          "type": "uint256"
        }
      ],
      "name": "candidates",
      "outputs": [
        {
          "internalType": "string",
          "name": "name",
          "type": "string"
        },
        {
          "internalType": "string",
          "name": "location",
          "type": "string"
        },
        {
          "internalType": "string",
          "name": "party",
          "type": "string"
        },
        {
          "internalType": "uint256",
          "name": "voteCount",
          "type": "uint256"
        }
      ],
      "stateMutability": "view",
      "type": "function",
      "constant": true
    },
    {
      "inputs": [
        {
          "internalType": "address",
          "name": "",
          "type": "address"
        }
      ],
      "name": "voters",
      "outputs": [
        {
          "internalType": "bool",
          "name": "",
          "type": "bool"
        }
      ],
      "stateMutability": "view",
      "type": "function",
      "constant": true
    },
    {
      "inputs": [],
      "name": "votingEndingTime",
      "outputs": [
        {
          "internalType": "uint256",
          "name": "",
          "type": "uint256"
        }
      ],
      "stateMutability": "view",
      "type": "function",
      "constant": true
    },
    {
      "inputs": [],
      "name": "votingStartTime",
      "outputs": [
        {
          "internalType": "uint256",
          "name": "",
          "type": "uint256"
        }
      ],
      "stateMutability": "view",
      "type": "function",
      "constant": true
    },
    {
      "inputs": [],
      "name": "login",
      "outputs": [
        {
          "internalType": "bool",
          "name": "",
          "type": "bool"
        }
      ],
      "stateMutability": "view",
      "type": "function",
      "constant": true
    },
    {
      "inputs": [
        {
          "internalType": "uint256",
          "name": "startTime",
          "type": "uint256"
        },
        {
          "internalType": "uint256",
          "name": "endTime",
          "type": "uint256"
        }
      ],
      "name": "setVotingStartTime",
      "outputs": [],
      "stateMutability": "nonpayable",
      "type": "function"
    },
    {
      "inputs": [
        {
          "internalType": "string",
          "name": "_name",
          "type": "string"
        },
        {
          "internalType": "string",
          "name": "_location",
          "type": "string"
        },
        {
          "internalType": "string",
          "name": "_party",
          "type": "string"
        }
      ],
      "name": "addCandidate",
      "outputs": [],
      "stateMutability": "nonpayable",
      "type": "function"
    },
    {
      "inputs": [
        {
          "internalType": "string",
          "name": "_name",
          "type": "string"
        },
        {
          "internalType": "string",
          "name": "_location",
          "type": "string"
        },
        {
          "internalType": "string",
          "name": "_party",
          "type": "string"
        },
        {
          "internalType": "string",
          "name": "_newName",
          "type": "string"
        },
        {
          "internalType": "string",
          "name": "_newLocation",
          "type": "string"
        },
        {
          "internalType": "string",
          "name": "_newParty",
          "type": "string"
        }
      ],
      "name": "editCandidate",
      "outputs": [],
      "stateMutability": "nonpayable",
      "type": "function"
    },
    {
      "inputs": [
        {
          "internalType": "string",
          "name": "_name",
          "type": "string"
        },
        {
          "internalType": "string",
          "name": "_location",
          "type": "string"
        },
        {
          "internalType": "string",
          "name": "_party",
          "type": "string"
        }
      ],
      "name": "deleteCandidate",
      "outputs": [],
      "stateMutability": "nonpayable",
      "type": "function"
    },
    {
      "inputs": [
        {
          "internalType": "uint256",
          "name": "_candidateIndex",
          "type": "uint256"
        }
      ],
      "name": "vote",
      "outputs": [],
      "stateMutability": "nonpayable",
      "type": "function"
    },
    {
      "inputs": [],
      "name": "hasVoted",
      "outputs": [
        {
          "internalType": "bool",
          "name": "",
          "type": "bool"
        }
      ],
      "stateMutability": "view",
      "type": "function",
      "constant": true
    },
    {
      "inputs": [],
      "name": "getAllVotesOfCandiates",
      "outputs": [
        {
          "components": [
            {
              "internalType": "string",
              "name": "name",
              "type": "string"
            },
            {
              "internalType": "string",
              "name": "location",
              "type": "string"
            },
            {
              "internalType": "string",
              "name": "party",
              "type": "string"
            },
            {
              "internalType": "uint256",
              "name": "voteCount",
              "type": "uint256"
            }
          ],
          "internalType": "struct Voting.Candidate[]",
          "name": "",
          "type": "tuple[]"
        }
      ],
      "stateMutability": "view",
      "type": "function",
      "constant": true
    },
    {
      "inputs": [],
      "name": "isOnGoing",
      "outputs": [
        {
          "internalType": "bool",
          "name": "",
          "type": "bool"
        }
      ],
      "stateMutability": "view",
      "type": "function",
      "constant": true
    }
  ],
  "bytecode": "0x60806040523480156200001157600080fd5b5060405162002ca238038062002ca2833981810160405281019062000037919062000679565b60005b8451811015620002805760008582815181106200005c576200005b62000748565b5b60200260200101518583815181106200007a576200007962000748565b5b602002602001015185848151811062000098576200009762000748565b5b6020026020010151604051602001620000b493929190620007c4565b6040516020818303038152906040528051906020012090506003600082815260200190815260200160002060009054906101000a900460ff161562000130576040517f08c379a000000000000000000000000000000000000000000000000000000000815260040162000127906200085c565b60405180910390fd5b60016003600083815260200190815260200160002060006101000a81548160ff021916908315150217905550600060405180608001604052808885815181106200017f576200017e62000748565b5b60200260200101518152602001878581518110620001a257620001a162000748565b5b60200260200101518152602001868581518110620001c557620001c462000748565b5b602002602001015181526020016000815250908060018154018082558091505060019003906000526020600020906004020160009091909190915060008201518160000190805190602001906200021e929190620002f5565b5060208201518160010190805190602001906200023d929190620002f5565b5060408201518160020190805190602001906200025c929190620002f5565b506060820151816003015550505080806200027790620008ad565b9150506200003a565b5042600481905550603c81620002979190620008fb565b42620002a491906200095c565b60058190555033600160006101000a81548173ffffffffffffffffffffffffffffffffffffffff021916908373ffffffffffffffffffffffffffffffffffffffff1602179055505050505062000a1e565b8280546200030390620009e8565b90600052602060002090601f01602090048101928262000327576000855562000373565b82601f106200034257805160ff191683800117855562000373565b8280016001018555821562000373579182015b828111156200037257825182559160200191906001019062000355565b5b50905062000382919062000386565b5090565b5b80821115620003a157600081600090555060010162000387565b5090565b6000604051905090565b600080fd5b600080fd5b600080fd5b6000601f19601f8301169050919050565b7f4e487b7100000000000000000000000000000000000000000000000000000000600052604160045260246000fd5b6200040982620003be565b810181811067ffffffffffffffff821117156200042b576200042a620003cf565b5b80604052505050565b600062000440620003a5565b90506200044e8282620003fe565b919050565b600067ffffffffffffffff821115620004715762000470620003cf565b5b602082029050602081019050919050565b600080fd5b600080fd5b600067ffffffffffffffff821115620004aa57620004a9620003cf565b5b620004b582620003be565b9050602081019050919050565b60005b83811015620004e2578082015181840152602081019050620004c5565b83811115620004f2576000848401525b50505050565b60006200050f62000509846200048c565b62000434565b9050828152602081018484840111156200052e576200052d62000487565b5b6200053b848285620004c2565b509392505050565b600082601f8301126200055b576200055a620003b9565b5b81516200056d848260208601620004f8565b91505092915050565b60006200058d620005878462000453565b62000434565b90508083825260208201905060208402830185811115620005b357620005b262000482565b5b835b818110156200060157805167ffffffffffffffff811115620005dc57620005db620003b9565b5b808601620005eb898262000543565b85526020850194505050602081019050620005b5565b5050509392505050565b600082601f830112620006235762000622620003b9565b5b81516200063584826020860162000576565b91505092915050565b6000819050919050565b62000653816200063e565b81146200065f57600080fd5b50565b600081519050620006738162000648565b92915050565b60008060008060808587031215620006965762000695620003af565b5b600085015167ffffffffffffffff811115620006b757620006b6620003b4565b5b620006c5878288016200060b565b945050602085015167ffffffffffffffff811115620006e957620006e8620003b4565b5b620006f7878288016200060b565b935050604085015167ffffffffffffffff8111156200071b576200071a620003b4565b5b62000729878288016200060b565b92505060606200073c8782880162000662565b91505092959194509250565b7f4e487b7100000000000000000000000000000000000000000000000000000000600052603260045260246000fd5b600081519050919050565b600081905092915050565b60006200079a8262000777565b620007a6818562000782565b9350620007b8818560208601620004c2565b80840191505092915050565b6000620007d282866200078d565b9150620007e082856200078d565b9150620007ee82846200078d565b9150819050949350505050565b600082825260208201905092915050565b7f4475706c69636174652063616e64696461746520646574656374656400000000600082015250565b600062000844601c83620007fb565b915062000851826200080c565b602082019050919050565b60006020820190508181036000830152620008778162000835565b9050919050565b7f4e487b7100000000000000000000000000000000000000000000000000000000600052601160045260246000fd5b6000620008ba826200063e565b91507fffffffffffffffffffffffffffffffffffffffffffffffffffffffffffffffff821415620008f057620008ef6200087e565b5b600182019050919050565b600062000908826200063e565b915062000915836200063e565b9250817fffffffffffffffffffffffffffffffffffffffffffffffffffffffffffffffff04831182151516156200095157620009506200087e565b5b828202905092915050565b600062000969826200063e565b915062000976836200063e565b9250827fffffffffffffffffffffffffffffffffffffffffffffffffffffffffffffffff03821115620009ae57620009ad6200087e565b5b828201905092915050565b7f4e487b7100000000000000000000000000000000000000000000000000000000600052602260045260246000fd5b6000600282049050600182168062000a0157607f821691505b6020821081141562000a185762000a17620009b9565b5b50919050565b6122748062000a2e6000396000f3fe608060405234801561001057600080fd5b50600436106100cf5760003560e01c8063648213381161008c578063ad71f8dc11610066578063ad71f8dc14610205578063b34e97e814610221578063c5ca86261461023f578063fc96a1091461025b576100cf565b8063648213381461019b578063973556a6146101b9578063a3ec138d146101d5576100cf565b80630121b93f146100d45780632019a608146100f05780633453cba91461010e5780633477ee2e1461012c5780634d0b1be71461015f5780634d6bda5f1461017d575b600080fd5b6100ee60048036038101906100e99190611511565b610277565b005b6100f861046b565b604051610105919061154d565b60405180910390f35b610116610471565b6040516101239190611583565b60405180910390f35b61014660048036038101906101419190611511565b61048c565b6040516101569493929190611637565b60405180910390f35b610167610664565b604051610174919061154d565b60405180910390f35b61018561066a565b604051610192919061181d565b60405180910390f35b6101a3610889565b6040516101b09190611583565b60405180910390f35b6101d360048036038101906101ce9190611974565b6108dd565b005b6101ef60048036038101906101ea9190611a79565b610c6e565b6040516101fc9190611583565b60405180910390f35b61021f600480360381019061021a9190611974565b610c8e565b005b610229610ee4565b6040516102369190611583565b60405180910390f35b61025960048036038101906102549190611aa6565b610f3c565b005b61027560048036038101906102709190611bdb565b6112b5565b005b6004544210156102bc576040517f08c379a00000000000000000000000000000000000000000000000000000000081526004016102b390611c67565b60405180910390fd5b600554421115610301576040517f08c379a00000000000000000000000000000000000000000000000000000000081526004016102f890611cd3565b60405180910390fd5b600260003373ffffffffffffffffffffffffffffffffffffffff1673ffffffffffffffffffffffffffffffffffffffff16815260200190815260200160002060009054906101000a900460ff161561038e576040517f08c379a000000000000000000000000000000000000000000000000000000000815260040161038590611d3f565b60405180910390fd5b60008054905081106103d5576040517f08c379a00000000000000000000000000000000000000000000000000000000081526004016103cc90611dab565b60405180910390fd5b600081815481106103e9576103e8611dcb565b5b9060005260206000209060040201600301600081548092919061040b90611e29565b91905055506001600260003373ffffffffffffffffffffffffffffffffffffffff1673ffffffffffffffffffffffffffffffffffffffff16815260200190815260200160002060006101000a81548160ff02191690831515021790555050565b60045481565b6000600454421015801561048757506005544211155b905090565b6000818154811061049c57600080fd5b90600052602060002090600402016000915090508060000180546104bf90611ea1565b80601f01602080910402602001604051908101604052809291908181526020018280546104eb90611ea1565b80156105385780601f1061050d57610100808354040283529160200191610538565b820191906000526020600020905b81548152906001019060200180831161051b57829003601f168201915b50505050509080600101805461054d90611ea1565b80601f016020809104026020016040519081016040528092919081815260200182805461057990611ea1565b80156105c65780601f1061059b576101008083540402835291602001916105c6565b820191906000526020600020905b8154815290600101906020018083116105a957829003601f168201915b5050505050908060020180546105db90611ea1565b80601f016020809104026020016040519081016040528092919081815260200182805461060790611ea1565b80156106545780601f1061062957610100808354040283529160200191610654565b820191906000526020600020905b81548152906001019060200180831161063757829003601f168201915b5050505050908060030154905084565b60055481565b60606000805480602002602001604051908101604052809291908181526020016000905b8282101561088057838290600052602060002090600402016040518060800160405290816000820180546106c190611ea1565b80601f01602080910402602001604051908101604052809291908181526020018280546106ed90611ea1565b801561073a5780601f1061070f5761010080835404028352916020019161073a565b820191906000526020600020905b81548152906001019060200180831161071d57829003601f168201915b5050505050815260200160018201805461075390611ea1565b80601f016020809104026020016040519081016040528092919081815260200182805461077f90611ea1565b80156107cc5780601f106107a1576101008083540402835291602001916107cc565b820191906000526020600020905b8154815290600101906020018083116107af57829003601f168201915b505050505081526020016002820180546107e590611ea1565b80601f016020809104026020016040519081016040528092919081815260200182805461081190611ea1565b801561085e5780601f106108335761010080835404028352916020019161085e565b820191906000526020600020905b81548152906001019060200180831161084157829003601f168201915b505050505081526020016003820154815250508152602001906001019061068e565b50505050905090565b6000600260003373ffffffffffffffffffffffffffffffffffffffff1673ffffffffffffffffffffffffffffffffffffffff16815260200190815260200160002060009054906101000a900460ff16905090565b600160009054906101000a900473ffffffffffffffffffffffffffffffffffffffff1673ffffffffffffffffffffffffffffffffffffffff163373ffffffffffffffffffffffffffffffffffffffff161461096d576040517f08c379a000000000000000000000000000000000000000000000000000000000815260040161096490611f45565b60405180910390fd5b600454421015801561098157506005544211155b156109c1576040517f08c379a00000000000000000000000000000000000000000000000000000000081526004016109b890611fb1565b60405180910390fd5b60008383836040516020016109d89392919061200d565b6040516020818303038152906040528051906020012090506003600082815260200190815260200160002060009054906101000a900460ff16610a50576040517f08c379a0000000000000000000000000000000000000000000000000000000008152600401610a479061208a565b60405180910390fd5b60006003600083815260200190815260200160002060006101000a81548160ff02191690831515021790555060005b600080549050811015610c67578160008281548110610aa157610aa0611dcb565b5b906000526020600020906004020160000160008381548110610ac657610ac5611dcb565b5b906000526020600020906004020160010160008481548110610aeb57610aea611dcb565b5b9060005260206000209060040201600201604051602001610b0e9392919061213e565b604051602081830303815290604052805190602001201415610c545760006001600080549050610b3e919061216f565b81548110610b4f57610b4e611dcb565b5b906000526020600020906004020160008281548110610b7157610b70611dcb565b5b90600052602060002090600402016000820181600001908054610b9390611ea1565b610b9e929190611357565b506001820181600101908054610bb390611ea1565b610bbe929190611357565b506002820181600201908054610bd390611ea1565b610bde929190611357565b50600382015481600301559050506000805480610bfe57610bfd6121a3565b5b600190038181906000526020600020906004020160008082016000610c2391906113e4565b600182016000610c3391906113e4565b600282016000610c4391906113e4565b600382016000905550509055610c67565b8080610c5f90611e29565b915050610a7f565b5050505050565b60026020528060005260406000206000915054906101000a900460ff1681565b600160009054906101000a900473ffffffffffffffffffffffffffffffffffffffff1673ffffffffffffffffffffffffffffffffffffffff163373ffffffffffffffffffffffffffffffffffffffff1614610d1e576040517f08c379a0000000000000000000000000000000000000000000000000000000008152600401610d1590611f45565b60405180910390fd5b6004544210158015610d3257506005544211155b15610d72576040517f08c379a0000000000000000000000000000000000000000000000000000000008152600401610d6990611fb1565b60405180910390fd5b6000838383604051602001610d899392919061200d565b6040516020818303038152906040528051906020012090506003600082815260200190815260200160002060009054906101000a900460ff1615610e02576040517f08c379a0000000000000000000000000000000000000000000000000000000008152600401610df99061221e565b60405180910390fd5b60016003600083815260200190815260200160002060006101000a81548160ff02191690831515021790555060006040518060800160405280868152602001858152602001848152602001600081525090806001815401808255809150506001900390600052602060002090600402016000909190919091506000820151816000019080519060200190610e97929190611424565b506020820151816001019080519060200190610eb4929190611424565b506040820151816002019080519060200190610ed1929190611424565b5060608201518160030155505050505050565b6000600160009054906101000a900473ffffffffffffffffffffffffffffffffffffffff1673ffffffffffffffffffffffffffffffffffffffff163373ffffffffffffffffffffffffffffffffffffffff1614905090565b600160009054906101000a900473ffffffffffffffffffffffffffffffffffffffff1673ffffffffffffffffffffffffffffffffffffffff163373ffffffffffffffffffffffffffffffffffffffff1614610fcc576040517f08c379a0000000000000000000000000000000000000000000000000000000008152600401610fc390611f45565b60405180910390fd5b6004544210158015610fe057506005544211155b15611020576040517f08c379a000000000000000000000000000000000000000000000000000000000815260040161101790611fb1565b60405180910390fd5b60008686866040516020016110379392919061200d565b6040516020818303038152906040528051906020012090506003600082815260200190815260200160002060009054906101000a900460ff166110af576040517f08c379a00000000000000000000000000000000000000000000000000000000081526004016110a69061208a565b60405180910390fd5b60005b6000805490508110156112ab5781600082815481106110d4576110d3611dcb565b5b9060005260206000209060040201600001600083815481106110f9576110f8611dcb565b5b90600052602060002090600402016001016000848154811061111e5761111d611dcb565b5b90600052602060002090600402016002016040516020016111419392919061213e565b60405160208183030381529060405280519060200120141561129857846000828154811061117257611171611dcb565b5b90600052602060002090600402016000019080519060200190611196929190611424565b5083600082815481106111ac576111ab611dcb565b5b906000526020600020906004020160010190805190602001906111d0929190611424565b5082600082815481106111e6576111e5611dcb565b5b9060005260206000209060040201600201908051906020019061120a929190611424565b5060006003600084815260200190815260200160002060006101000a81548160ff021916908315150217905550600085858560405160200161124e9392919061200d565b60405160208183030381529060405280519060200120905060016003600083815260200190815260200160002060006101000a81548160ff021916908315150217905550506112ab565b80806112a390611e29565b9150506110b2565b5050505050505050565b600160009054906101000a900473ffffffffffffffffffffffffffffffffffffffff1673ffffffffffffffffffffffffffffffffffffffff163373ffffffffffffffffffffffffffffffffffffffff1614611345576040517f08c379a000000000000000000000000000000000000000000000000000000000815260040161133c90611f45565b60405180910390fd5b81600481905550806005819055505050565b82805461136390611ea1565b90600052602060002090601f01602090048101928261138557600085556113d3565b82601f1061139657805485556113d3565b828001600101855582156113d357600052602060002091601f016020900482015b828111156113d25782548255916001019190600101906113b7565b5b5090506113e091906114aa565b5090565b5080546113f090611ea1565b6000825580601f106114025750611421565b601f01602090049060005260206000209081019061142091906114aa565b5b50565b82805461143090611ea1565b90600052602060002090601f0160209004810192826114525760008555611499565b82601f1061146b57805160ff1916838001178555611499565b82800160010185558215611499579182015b8281111561149857825182559160200191906001019061147d565b5b5090506114a691906114aa565b5090565b5b808211156114c35760008160009055506001016114ab565b5090565b6000604051905090565b600080fd5b600080fd5b6000819050919050565b6114ee816114db565b81146114f957600080fd5b50565b60008135905061150b816114e5565b92915050565b600060208284031215611527576115266114d1565b5b6000611535848285016114fc565b91505092915050565b611547816114db565b82525050565b6000602082019050611562600083018461153e565b92915050565b60008115159050919050565b61157d81611568565b82525050565b60006020820190506115986000830184611574565b92915050565b600081519050919050565b600082825260208201905092915050565b60005b838110156115d85780820151818401526020810190506115bd565b838111156115e7576000848401525b50505050565b6000601f19601f8301169050919050565b60006116098261159e565b61161381856115a9565b93506116238185602086016115ba565b61162c816115ed565b840191505092915050565b6000608082019050818103600083015261165181876115fe565b9050818103602083015261166581866115fe565b9050818103604083015261167981856115fe565b9050611688606083018461153e565b95945050505050565b600081519050919050565b600082825260208201905092915050565b6000819050602082019050919050565b600082825260208201905092915050565b60006116d98261159e565b6116e381856116bd565b93506116f38185602086016115ba565b6116fc816115ed565b840191505092915050565b611710816114db565b82525050565b6000608083016000830151848203600086015261173382826116ce565b9150506020830151848203602086015261174d82826116ce565b9150506040830151848203604086015261176782826116ce565b915050606083015161177c6060860182611707565b508091505092915050565b60006117938383611716565b905092915050565b6000602082019050919050565b60006117b382611691565b6117bd818561169c565b9350836020820285016117cf856116ad565b8060005b8581101561180b57848403895281516117ec8582611787565b94506117f78361179b565b925060208a019950506001810190506117d3565b50829750879550505050505092915050565b6000602082019050818103600083015261183781846117a8565b905092915050565b600080fd5b600080fd5b7f4e487b7100000000000000000000000000000000000000000000000000000000600052604160045260246000fd5b611881826115ed565b810181811067ffffffffffffffff821117156118a05761189f611849565b5b80604052505050565b60006118b36114c7565b90506118bf8282611878565b919050565b600067ffffffffffffffff8211156118df576118de611849565b5b6118e8826115ed565b9050602081019050919050565b82818337600083830152505050565b6000611917611912846118c4565b6118a9565b90508281526020810184848401111561193357611932611844565b5b61193e8482856118f5565b509392505050565b600082601f83011261195b5761195a61183f565b5b813561196b848260208601611904565b91505092915050565b60008060006060848603121561198d5761198c6114d1565b5b600084013567ffffffffffffffff8111156119ab576119aa6114d6565b5b6119b786828701611946565b935050602084013567ffffffffffffffff8111156119d8576119d76114d6565b5b6119e486828701611946565b925050604084013567ffffffffffffffff811115611a0557611a046114d6565b5b611a1186828701611946565b9150509250925092565b600073ffffffffffffffffffffffffffffffffffffffff82169050919050565b6000611a4682611a1b565b9050919050565b611a5681611a3b565b8114611a6157600080fd5b50565b600081359050611a7381611a4d565b92915050565b600060208284031215611a8f57611a8e6114d1565b5b6000611a9d84828501611a64565b91505092915050565b60008060008060008060c08789031215611ac357611ac26114d1565b5b600087013567ffffffffffffffff811115611ae157611ae06114d6565b5b611aed89828a01611946565b965050602087013567ffffffffffffffff811115611b0e57611b0d6114d6565b5b611b1a89828a01611946565b955050604087013567ffffffffffffffff811115611b3b57611b3a6114d6565b5b611b4789828a01611946565b945050606087013567ffffffffffffffff811115611b6857611b676114d6565b5b611b7489828a01611946565b935050608087013567ffffffffffffffff811115611b9557611b946114d6565b5b611ba189828a01611946565b92505060a087013567ffffffffffffffff811115611bc257611bc16114d6565b5b611bce89828a01611946565b9150509295509295509295565b60008060408385031215611bf257611bf16114d1565b5b6000611c00858286016114fc565b9250506020611c11858286016114fc565b9150509250929050565b7f456c656374696f6e206e6f742073746172746564000000000000000000000000600082015250565b6000611c516014836115a9565b9150611c5c82611c1b565b602082019050919050565b60006020820190508181036000830152611c8081611c44565b9050919050565b7f456c656374696f6e20656e646564000000000000000000000000000000000000600082015250565b6000611cbd600e836115a9565b9150611cc882611c87565b602082019050919050565b60006020820190508181036000830152611cec81611cb0565b9050919050565b7f596f75206861766520616c726561647920766f7465642e000000000000000000600082015250565b6000611d296017836115a9565b9150611d3482611cf3565b602082019050919050565b60006020820190508181036000830152611d5881611d1c565b9050919050565b7f496e76616c69642063616e64696461746520696e6465782e0000000000000000600082015250565b6000611d956018836115a9565b9150611da082611d5f565b602082019050919050565b60006020820190508181036000830152611dc481611d88565b9050919050565b7f4e487b7100000000000000000000000000000000000000000000000000000000600052603260045260246000fd5b7f4e487b7100000000000000000000000000000000000000000000000000000000600052601160045260246000fd5b6000611e34826114db565b91507fffffffffffffffffffffffffffffffffffffffffffffffffffffffffffffffff821415611e6757611e66611dfa565b5b600182019050919050565b7f4e487b7100000000000000000000000000000000000000000000000000000000600052602260045260246000fd5b60006002820490506001821680611eb957607f821691505b60208210811415611ecd57611ecc611e72565b5b50919050565b7f4f6e6c7920746865206f776e65722063616e20706572666f726d20746869732060008201527f616374696f6e2e00000000000000000000000000000000000000000000000000602082015250565b6000611f2f6027836115a9565b9150611f3a82611ed3565b604082019050919050565b60006020820190508181036000830152611f5e81611f22565b9050919050565b7f456c656374696f6e20616c726561647920737461727465640000000000000000600082015250565b6000611f9b6018836115a9565b9150611fa682611f65565b602082019050919050565b60006020820190508181036000830152611fca81611f8e565b9050919050565b600081905092915050565b6000611fe78261159e565b611ff18185611fd1565b93506120018185602086016115ba565b80840191505092915050565b60006120198286611fdc565b91506120258285611fdc565b91506120318284611fdc565b9150819050949350505050565b7f43616e646964617465206e6f7420666f756e6400000000000000000000000000600082015250565b60006120746013836115a9565b915061207f8261203e565b602082019050919050565b600060208201905081810360008301526120a381612067565b9050919050565b60008190508160005260206000209050919050565b600081546120cc81611ea1565b6120d68186611fd1565b945060018216600081146120f1576001811461210257612135565b60ff19831686528186019350612135565b61210b856120aa565b60005b8381101561212d5781548189015260018201915060208101905061210e565b838801955050505b50505092915050565b600061214a82866120bf565b915061215682856120bf565b915061216282846120bf565b9150819050949350505050565b600061217a826114db565b9150612185836114db565b92508282101561219857612197611dfa565b5b828203905092915050565b7f4e487b7100000000000000000000000000000000000000000000000000000000600052603160045260246000fd5b7f43616e64696461746520616c7265616479206578697374730000000000000000600082015250565b60006122086018836115a9565b9150612213826121d2565b602082019050919050565b60006020820190508181036000830152612237816121fb565b905091905056fea2646970667358221220f47e2ebeabf783d2fa4d965dcf1629110bd9ef627e0e45b54c09e76c5d69008b64736f6c63430008090033",
  "immutableReferences": {},
  "source": "// SPDX-License-Identifier: MIT\r\npragma solidity ^0.8.0;\r\n\r\ncontract Voting {\r\n    struct Candidate {\r\n        string name;\r\n        string location;\r\n        string party;\r\n        uint256 voteCount;\r\n    }\r\n\r\n    Candidate[] public candidates;\r\n    address owner;\r\n    mapping(address => bool) public voters;\r\n    mapping(bytes32 => bool) private candidateHashes;\r\n\r\n    uint256 public votingStartTime;\r\n    uint256 public votingEndingTime;\r\n\r\n    constructor(\r\n        string[] memory _candidateNames,\r\n        string[] memory _candidateLocation,\r\n        string[] memory _candidateParty,\r\n        uint256 _durationInMinutes\r\n    ) {\r\n        for (uint256 i = 0; i < _candidateNames.length; i++) {\r\n            bytes32 candidateHash = keccak256(abi.encodePacked(_candidateNames[i], _candidateLocation[i], _candidateParty[i]));\r\n            require(!candidateHashes[candidateHash], \"Duplicate candidate detected\");\r\n\r\n            candidateHashes[candidateHash] = true;\r\n            candidates.push(\r\n                Candidate({\r\n                    name: _candidateNames[i],\r\n                    location: _candidateLocation[i],\r\n                    party: _candidateParty[i],\r\n                    voteCount: 0\r\n                })\r\n            );\r\n        }\r\n        votingStartTime = block.timestamp;\r\n        votingEndingTime = block.timestamp + (_durationInMinutes * 60);\r\n        owner = msg.sender;\r\n    }\r\n\r\n    modifier onlyOwner() {\r\n        require(msg.sender == owner, \"Only the owner can perform this action.\");\r\n        _;\r\n    }\r\n\r\n    function login() public view returns (bool) {\r\n        return msg.sender == owner;\r\n    }\r\n\r\n    function setVotingStartTime(\r\n        uint256 startTime,\r\n        uint256 endTime\r\n    ) public onlyOwner {\r\n        votingStartTime = startTime;\r\n        votingEndingTime = endTime;\r\n    }\r\n\r\n    function addCandidate(\r\n        string memory _name,\r\n        string memory _location,\r\n        string memory _party\r\n    ) public onlyOwner {\r\n        require(!(block.timestamp >= votingStartTime && block.timestamp <= votingEndingTime), \"Election already started\");\r\n\r\n        bytes32 candidateHash = keccak256(abi.encodePacked(_name, _location, _party));\r\n        require(!candidateHashes[candidateHash], \"Candidate already exists\");\r\n\r\n        candidateHashes[candidateHash] = true;\r\n        candidates.push(\r\n            Candidate({\r\n                name: _name,\r\n                location: _location,\r\n                party: _party,\r\n                voteCount: 0\r\n            })\r\n        );\r\n    }\r\n\r\nfunction editCandidate(\r\n    string memory _name,\r\n    string memory _location,\r\n    string memory _party,\r\n    string memory _newName,\r\n    string memory _newLocation,\r\n    string memory _newParty\r\n) public onlyOwner {\r\n    require(!(block.timestamp >= votingStartTime && block.timestamp <= votingEndingTime), \"Election already started\");\r\n\r\n    // hash for the existing candidate\r\n    bytes32 candidateHash = keccak256(abi.encodePacked(_name, _location, _party));\r\n    require(candidateHashes[candidateHash], \"Candidate not found\");\r\n\r\n    for (uint256 i = 0; i < candidates.length; i++) {\r\n        if (\r\n            keccak256(abi.encodePacked(candidates[i].name, candidates[i].location, candidates[i].party)) == candidateHash\r\n        ) {\r\n            // Update\r\n            candidates[i].name = _newName;\r\n            candidates[i].location = _newLocation;\r\n            candidates[i].party = _newParty;\r\n\r\n            // Remove the old hash and add the new one\r\n            candidateHashes[candidateHash] = false;\r\n            bytes32 newCandidateHash = keccak256(abi.encodePacked(_newName, _newLocation, _newParty));\r\n            candidateHashes[newCandidateHash] = true;\r\n            \r\n            break;\r\n        }\r\n    }\r\n}\r\n\r\n\r\n\r\n    function deleteCandidate(\r\n        string memory _name,\r\n        string memory _location,\r\n        string memory _party\r\n    ) public onlyOwner {\r\n        require(!(block.timestamp >= votingStartTime && block.timestamp <= votingEndingTime), \"Election already started\");\r\n\r\n        bytes32 candidateHash = keccak256(abi.encodePacked(_name, _location, _party));\r\n        require(candidateHashes[candidateHash], \"Candidate not found\");\r\n\r\n        candidateHashes[candidateHash] = false;\r\n\r\n        for (uint256 i = 0; i < candidates.length; i++) {\r\n            if (\r\n                keccak256(abi.encodePacked(candidates[i].name, candidates[i].location, candidates[i].party)) == candidateHash\r\n            ) {\r\n                candidates[i] = candidates[candidates.length - 1];\r\n                candidates.pop();\r\n                break;\r\n            }\r\n        }\r\n    }\r\n\r\n    function vote(uint256 _candidateIndex) public {\r\n        require(block.timestamp >= votingStartTime, \"Election not started\");\r\n        require(block.timestamp <= votingEndingTime, \"Election ended\");\r\n        require(!voters[msg.sender], \"You have already voted.\");\r\n        require(_candidateIndex < candidates.length, \"Invalid candidate index.\");\r\n\r\n        candidates[_candidateIndex].voteCount++;\r\n        voters[msg.sender] = true;\r\n    }\r\n\r\n    function hasVoted() public view returns (bool) {\r\n        return voters[msg.sender];\r\n    }\r\n\r\n    function getAllVotesOfCandiates() public view returns (Candidate[] memory) {\r\n        return candidates;\r\n    }\r\n\r\n    function isOnGoing() public view returns (bool) {\r\n        return block.timestamp >= votingStartTime && block.timestamp <= votingEndingTime;\r\n    }\r\n}\r\n",
  "sourcePath": "C:\\Users\\rselv\\OneDrive\\\\Evoting-DApp\\contracts\\Voting.sol",
  "compiler": {
    "name": "solc",
    "version": "0.8.9+commit.e5eed63a.Emscripten.clang"
  },
  "schemaVersion": "3.4.16",
  "updatedAt": "2024-12-10T00:45:35.597Z",
  "networkType": "ethereum",
  "devdoc": {
    "kind": "dev",
    "methods": {},
    "version": 1
  },
  "userdoc": {
    "kind": "user",
    "methods": {},
    "version": 1
  }
}